:020000040800F2
:10000000E00600202D02000831020008330200083B
:10001000350200083702000839020008000000001D
:100020000000000000000000000000003B0200088B
:100030003D020008000000003F02000841020008E5
:10004000DD5600084302000843020008015300087F
:100050004302000843020008590700084302000851
:10006000430200084302000843020008430200085C
:10007000430200084302000843020008430200084C
:10008000430200084302000843020008430200083C
:10009000430200084302000843020008430200082C
:1000A000430200084302000843020008430200081C
:1000B0004302000885540008B554000843020008B4
:1000C00043020008430200084302000843020008FC
:1000D00043020008055600084302000843020008D6
:1000E00043020008430200084302000843020008DC
:1000F00043020008430200084302000843020008CC
:100100004302000843020008F154000843020008BB
:1001100043020008430200084302000843020008AB
:10012000430200084302000843020008430200089B
:1001300000F002F800F06BF80AA090E8000C82448E
:100140008344AAF10107DA4501D100F060F8AFF26B
:10015000090EBAE80F0013F0010F18BFFB1A43F0A5
:1001600001031847388C0000588C00000A444FF0F7
:10017000000C10F8013B13F0070408BF10F8014B06
:100180001D1108BF10F8015B641E05D010F8016B4B
:10019000641E01F8016BF9D113F0080F1EBF10F8AF
:1001A000014BAD1C0C1B09D16D1E58BF01F801CBD2
:1001B000FAD505E014F8016B01F8016B6D1EF9D555
:1001C0009142D6D37047000000230024002500266A
:1001D000103A28BF78C1FBD8520728BF30C148BFAA
:1001E0000B607047642900F09980752900F09680B3
:1001F000782900F0CF80632900F02382732900F072
:100200002882002070471FB51FBD10B510BD00F03B
:1002100053FA1146FFF7F7FF05F0F4FA00F071FA10
:1002200003B4FFF7F2FF03BC05F07FFA084800476C
:10023000FEE7FEE7FEE7FEE7FEE7FEE7FEE7FEE796
:10024000FEE7FEE703480449024A044B70470000FA
:1002500031010008E0020020E0060020E00200205A
:10026000704700000FB4044910B503AA029800F0CB
:10027000F5F910BC5DF814FB0400002070B50446CD
:1002800085690068C10601D5302600E02026C00738
:1002900007D070BDD4E9012130469047206A401C48
:1002A00020626D1EF6D570BD70B504468569007874
:1002B000C00707D170BDD4E9012120209047206AF2
:1002C000401C20626D1EF6D570BD70B50C4605460B
:1002D000012A05D02878800600D5EA69002302E0CB
:1002E000012305E05B1C934202D2E05C0028F9D1B7
:1002F000A869E618C01AA861286A18442862284626
:10030000FFF7BCFF04E0D5E9012114F8010B904789
:10031000B442F8D32846FFF7C7FF70BD2DE9F0417E
:100320000646002410687529314616A510D0AFF393
:100330000080002802DA404213A507E031688A07EE
:1003400001D512A502E0490704D511A5012401E059
:10035000AFF3008000210A2206F1240709E0B0FB78
:10036000F2FCB0FBF2F302FB1C003030785418466C
:10037000491C0028F3D123462A463046BDE8F04107
:1003800000F0FCB8000000002D0000002B00000071
:100390002000000070B504460D4621461068AFF3FA
:1003A00000802188090502D50F4A7A4402E00E4AEE
:1003B0007A440E32002104F1240305E000F00F0618
:1003C0000009965D5E54491C0028F7D1207800236F
:1003D000000704D5702D02D009B102231132204646
:1003E000BDE8704000F0CAB8048700002DE9F05F56
:1003F000894604464FF0000ADFF874B1FB44C0F8A8
:1004000020A02046E1688847002874D0252806D01F
:10041000D4E901219047206A401C2062F1E70026C0
:100420005F462046E16888472028054607DB312DD6
:1004300005D2781910F8200C08B10643F1E7B0078F
:1004400001D526F00406C4F81CA00027C4F818A0A3
:100450002A2D09D0284605F061F938B304EB870846
:10046000303DC8F8185019E059F8041B204604EB39
:1004700087029161E1688847012F054618D1E0693C
:10048000002820DA26F020061DE0D8F8180000EB3E
:10049000800005EB40003038C8F818002046E168BD
:1004A0008847054605F03AF90028EED1012F0AD019
:1004B0002E2D08D12046E16888477F1C0546022F73
:1004C00046F02006C4DBA069002803DA404246F06B
:1004D0000106A061F00701D026F010066C2D0BD0AC
:1004E000682D09D04C2D39D06A2D35D0742D35D0DA
:1004F0007A2D33D016E038E0E1682F462046884751
:10050000B842054609D16C2F26D04FF48060E168CF
:10051000064320468847054604E06C2F1AD04FF466
:10052000807006430DB3A5F14100192802D820358B
:1005300046F400664A462946204626604E46FFF7A6
:1005400051FE80B101280BD0F61D26F0070000F106
:10055000080956E74020E4E78020D8E70020D6E7E6
:1005600006F104094DE7284652E7206ABDE8F09FEE
:10057000DA86000070477047704770472DE9F047F2
:100580000D4699469246044600F124080168880603
:1005900004D5E06921F01001216000E00120A842AB
:1005A00001DD471B00E00027A1697A1902EB090071
:1005B000081AA0612078C00602D42046FFF75EFE2C
:1005C000002608E0D4E901211AF806009047206AC5
:1005D000401C761C20624E45F4DB2078C0060AD50C
:1005E0002046FFF74BFE06E0D4E90121302090477A
:1005F000206A401C2062381EA7F10107F4DC07E0E6
:10060000D4E9012118F805009047206A401C2062B7
:10061000281EA5F10105F3DC2046FFF745FE2078F2
:10062000000602D50220BDE8F0870120FBE710B5E7
:10063000436913B1AFF3008001E0FFF746FE0120EC
:1006400010BD127800F124010A7000224A700122C4
:10065000EDE711684FF0FF32E9E70000074B70B596
:100660000D467B4400F011F80446284600F020F8BF
:1006700010B14FF0FF3070BD204670BD83510000B7
:1006800001694A1C02610878704700B58FB0CDE956
:1006900001310021059105497944CDE90310114646
:1006A0006846FFF7A3FE0FB000BD0000E5FFFFFFA7
:1006B000007B00F080007047754600F029F8AE46D8
:1006C00005006946534620F00700854618B020B55E
:1006D000FFF7B8FDBDE820404FF000064FF00007DF
:1006E0004FF000084FF0000B21F00701AC46ACE8DA
:1006F000C009ACE8C009ACE8C009ACE8C0098D4647
:1007000070470446AFF300802046FFF789FD0000E4
:10071000004870478002002010B5002400200C49DA
:10072000086013E00B48006858B1601CC4B21E207A
:1007300005F01EF8642C09DB002005490860012043
:1007400010BD0120024908600020F9E7EAE7000037
:10075000948121420001214210B501200349086023
:10076000FFF7DAFF08B104F05BFE10BD140401408E
:1007700070B504460B46CE1701EB9676C6F387009C
:10078000CE1701EB9676B610A1EB8606B606350EAF
:100790001C4B9B6943F001031A4EB3614FEAB63319
:1007A00053F820300F26AE40B343174E46F82030A2
:1007B000334653F8203004FA05F61E43124B43F833
:1007C0002060124B1B6801268E4033430F4E33606E
:1007D00002F0010343B10D4B0C331B6801268E4020
:1007E00033430A4E0C36336002F0020343B1074B29
:1007F00008331E6801238B401E43044B08331E60E0
:1008000070BD0000001002400800014000040140DB
:100810000146CA1701EB92729210A1EB820292B9C3
:10082000642091FBF0F200FB121050B94FF4C87035
:1008300091FBF0F200FB121008B901207047002074
:10084000FCE70120FAE70020F8E730B5014601F0A7
:100850001F04C1F34513CA0AE50205EB431515440D
:10086000A8B230BD70B504460026174805884088F8
:1008700045431548808846F60401884216D112483F
:100880008079012812D100200F4988712A204881DF
:100890002B2088810021084604F04AF901200A49EA
:1008A00088712B2048812A20888103E00021084696
:1008B00004F03EF904F08CFB002602E003480480BB
:1008C000761CAE42FAD370BD680200200008006CAE
:1008D00010B50446002C66D16C498871F020088060
:1008E0004FF4A07048800846808849F24131884220
:1008F0000BD06648808846F60401884205D06348DC
:10090000808845F2103188421AD12C205F49088135
:100910002A2048812B2088810846808846F60401D9
:10092000884205D05948808845F21031884206D166
:100930004FF4A070554908804FF4F0704880A1E052
:100940005248808845F21051884210D14FF43050FF
:100950004E4908814FF4285048814FF42C5088812B
:100960004FF4F07008804FF4487048808AE04748A0
:10097000808841F6631188420DD12C2043490881BB
:100980002B2048812A2088814FF4F07008804FF492
:100990004870488076E022203C4908812020488128
:1009A000212088816EE00120384988714FF4A070C1
:1009B0000880F02048800846808849F2413188420A
:1009C00005D03248808845F21031884207D12C206A
:1009D0002E4908812A2048812B2088813FE02B481E
:1009E000808846F60401884207D12C2027490881D7
:1009F0002B2048812A20888131E02448808845F2D4
:100A00001051884210D14FF43050204908814FF4E2
:100A1000285048814FF42C5088814FF4487008804A
:100A20004FF4F07048801AE01848808841F663114E
:100A300088420DD12C20154908812A2048812B207D
:100A400088814FF4487008804FF4F070488006E0C9
:100A500022200E49088121204881202088810B48CE
:100A6000808846F60401884205D00848808845F20F
:100A70001031884206D14FF4F070044908804FF4D9
:100A8000A0704880002003F0DDFE10BD6802002049
:100A90002DE9FF4F84B081468A46002003900290E2
:100AA0000698A0EB09050798A0EB0A06CDF804907C
:100AB000CDF800A0002D01DD012705E00DB90027CC
:100AC00002E04FF0FF376D42002E02DD4FF00108CB
:100AD00006E016B94FF0000802E04FF0FF3876420A
:100AE000B54201DD2C4600E034464FF0000B21E01A
:100AF000009A91B2019A90B200F022F8039828442B
:100B000003900298304402900398A04205DD0398B8
:100B1000001B03900198384401900298A04205DD23
:100B20000298001B02900098404400900BF10100D5
:100B30001FFA80FB601C8345DADD08B0BDE8F08F4A
:100B400030B504460D462946204603F0F1FF04F077
:100B50003FFA024800880249088030BD100000209A
:100B60000008006CF0B504460D4616461F462B469D
:100B7000324629462046FFF78BFF3B462246294650
:100B80002046FFF785FF3B46324639462046FFF7B1
:100B90007FFF3B46324629463046FFF779FFF0BDDE
:100BA0002DE9F04306460F469046002445460320B3
:100BB000A0EB48093CE07A1B91B2321990B2FFF7E2
:100BC000BFFF3A1B91B2721990B2FFF7B9FF3A1901
:100BD00091B2721990B2FFF7B3FF7A1991B232193C
:100BE00090B2FFF7ADFF7A1991B2321B90B2FFF7C6
:100BF000A7FF3A1991B2721B90B2FFF7A1FF7A1BBF
:100C000091B2321B90B2FFF79BFF3A1B91B2721B5D
:100C100090B2FFF795FF641CB9F1000F03DAA00052
:100C2000801D814404E0601B80000A3081446D1EF9
:100C3000AC42C0DDBDE8F08330B503460C46154636
:100C40005A48808849F24131884205D05748808807
:100C500045F21031884214D15449488904F0B2F960
:100C6000181204F0A9F9D8B204F0A6F94F498889FE
:100C700004F0A8F9201204F09FF9E0B204F09CF906
:100C80008CE04A48808845F21051884220D147497B
:100C9000488904F097F9181204F08EF943494989FC
:100CA000491C88B204F08EF9D8B204F085F93F49A6
:100CB000888904F087F9201204F07EF93B4989897C
:100CC000491C88B204F07EF9E0B204F075F965E0E1
:100CD0003648808841F66311884228D133488079AC
:100CE00020B932480088401EC01A83B22F49488973
:100CF00004F068F9181204F05FF9D8B204F05CF956
:100D0000181204F059F9D8B204F056F92749888925
:100D100004F058F9201204F04FF9E0B204F04CF955
:100D2000201204F049F9E0B204F046F936E01F4819
:100D3000808846F6040188421DD11C48807901282C
:100D400004D11A480088401EC01A83B21749488946
:100D500004F038F9181204F02FF9D8B204F02CF985
:100D60001249888904F02EF9201204F025F9E0B226
:100D700004F022F912E00D488079012804D10B48D3
:100D80000088401EC01A83B208494889194604F0F9
:100D900029F906498889214604F024F90348008985
:100DA00003490880881C058030BD000068020020CF
:100DB000FE07006C2DE9FC4F05460E461746984687
:100DC000DDF82C90002001902748808846F6040129
:100DD000884229D124488079012825D1AB4635465F
:100DE00021480088C01B401E86B247461E48008826
:100DF000A0EB0B00401E1FFA80F800201A498871F2
:100E00002A2048812B20888143463A46314628468D
:100E1000CDF80090FFF7CEFF0120134988712B20F9
:100E200048812A2088811CE0781B401C80B20190F8
:100E3000344614E02146284603F07AFE04F0C8F850
:100E40004FF0000A06E00948A0F800900AF10100FE
:100E50001FFA80FA01988245F5DB601C84B2444594
:100E6000E8DDBDE8FC8F0000680200200008006C8F
:100E700010B5FD48406940F48070FB494861084660
:100E8000806940F0080088610846806940F02000D1
:100E900088610846806940F04000886108468069A2
:100EA00040F480708861F148006820F00F00EF493D
:100EB00008600846006840F003000860EC480068DD
:100EC000EC490840EA49086008460068EA490843D6
:100ED000E7490860081F006800F0FF20091F08604C
:100EE0000846006840F0BB100860E4480068002035
:100EF000E24908600846006840F0BB300860081FFF
:100F0000006820F07040091F08600846006840F043
:100F100030400860DA48406820F47020D8494860C2
:100F20000846406840F4302048600846006820F0D9
:100F30000F0008600846006840F00B0008600020C1
:100F40004FF020418861C861CE4908604FF02040D1
:100F5000806940F480504FF02041886108468069E4
:100F600040F4804088610846806940F01000886144
:100F70000846C069C8610846C06940F00100C86100
:100F80000846C06940F47060C861BE480068C1F896
:100F90001C01BC480068C1F81C010846D0F81C01BF
:100FA00040F44070C1F81C010846806940F001001F
:100FB0008861322004F0DCFB002003F00DFCB24914
:100FC000888008468088FF280ADB084680884FF61C
:100FD000FF71884204D0AC488088B0F5134F7CD1B3
:100FE000D32003F0EFFF03F037FBA749888003F01D
:100FF00033FBA549888003F02FFBA349888008466E
:1010000080884FF6FF7101EA00209F49888003F035
:1010100023FB9D49898808439B498880084680882E
:1010200049F24131884258D0BF2003F0CBFF03F092
:1010300013FB9549888003F00FFB9349888003F0E8
:101040000BFB9149888003F007FB8F498880084695
:1010500080884FF6FF7101EA00208B49888003F0F9
:10106000FBFA89498988084387498880084680882F
:1010700046F6040188427AD0D42003F0A3FF03F09F
:10108000EBFA8149888003F0E7FA7F49888003F012
:10109000E3FA7D498880084680884FF6FF7101EAAF
:1010A00000207949888003F0D7FA77498988084376
:1010B000754988800846808845F21031884256D0AC
:1010C0004FF45A4003F07EFF03F0C6FA6E49888061
:1010D0004FF45B4003F076FF00E048E003F0BCFA19
:1010E00069498880084680884FF6FF7101EA002030
:1010F000654988804FF45C4003F064FF03F0ACFA6C
:101100006149898808436049888008468088B0F52D
:10111000004F02D145F2105088805B48808845F22C
:101120001051884223D0A12003F04CFF03F094FA21
:101130005549888003F090FA534988800846808892
:101140004FF6FF7101EA00204F49888003F084FACE
:101150004D49898808434C4988800846808845F273
:101160006171884203D141F663104749888046483F
:10117000818846A0FFF776F84348808849F24131DC
:10118000884270D1CF2003F01DFF002003F014FF30
:10119000C12003F011FF302003F00EFFED2003F01B
:1011A00011FF642003F008FF032003F005FF122065
:1011B00003F002FF812003F0FFFEE82003F002FFAE
:1011C000852003F0F9FE102003F0F6FE7A2003F0EC
:1011D000F3FECB2003F0F6FE392003F0EDFE2C20C9
:1011E00003F0EAFE002003F0E7FE342003F0E4FE03
:1011F000022003F0E1FEF72003F0E4FE202003F0DC
:10120000DBFEEA2003F0DEFE002003F0D5FE002026
:1012100003F0D2FEC02003F0D5FE1B2003F0CCFE6D
:10122000C12003F0CFFE012003F0C6FEC52003F06D
:10123000C9FE302003F0C0FE302003F0BDFEC72001
:1012400003F0C0FEB72003F0B7FE362003F0BAFE6D
:10125000482003F0B1FE3A2003F0B4FE552003F01D
:10126000ABFEB1201AE0BFE000100240000C0140CC
:101270000414014000F0FF00BB0B00BB0418014048
:10128000002001401C0100A068020020204C4344C3
:101290002049443A25780D0A0000000003F092FE30
:1012A000002003F089FE1A2003F086FEB62003F02A
:1012B00089FE0A2003F080FEA22003F07DFEF220CA
:1012C00003F080FE002003F077FE262003F07AFE74
:1012D000012003F071FEE02003F074FE0F2003F004
:1012E0006BFE2A2003F068FE282003F065FE08202C
:1012F00003F062FE0E2003F05FFE082003F05CFEA8
:10130000542003F059FEA92003F056FE432003F0B9
:1013100053FE0A2003F050FE0F2003F04DFE002084
:1013200003F04AFE002003F047FE002003F044FED5
:10133000002003F041FEE12003F044FE002003F012
:101340003BFE152003F038FE172003F035FE072082
:1013500003F032FE112003F02FFE062003F02CFED6
:101360002B2003F029FE562003F026FE3C2003F03C
:1013700023FE052003F020FE102003F01DFE0F20A9
:1013800003F01AFE3F2003F017FE3F2003F014FE87
:101390000F2003F011FE2B2003F014FE002003F0B9
:1013A0000BFE002003F008FE012003F005FE3F20A5
:1013B00003F002FE2A2003F005FE002003F0FCFDEE
:1013C000002003F0F9FD002003F0F6FDEF2003F00C
:1013D000F3FD112003F0F6FD782004F0C9F929206F
:1013E00003F0F0FD03F01DB9FE48808846F60401C5
:1013F00088427CD1112003F0E5FD142004F0B8F9F7
:10140000D02003F0DFFD072003F0D6FD422003F0DB
:10141000D3FD1D2003F0D0FDD12003F0D3FD00202B
:1014200003F0CAFD1A2003F0C7FD092003F0C4FD34
:10143000D22003F0C7FD012003F0BEFD222003F0FF
:10144000BBFDC02003F0BEFD102003F0B5FD3B2026
:1014500003F0B2FD002003F0AFFD022003F0ACFD6D
:10146000112003F0A9FDC52003F0ACFD032003F01B
:10147000A3FDC82003F0A6FD002003F09DFD25205C
:1014800003F09AFD212003F097FD052003F094FD61
:10149000002003F091FD0A2003F08EFD652003F08B
:1014A0008BFD252003F088FD772003F085FD50207B
:1014B00003F082FD0F2003F07FFD002003F07CFD90
:1014C000F82003F07FFD012003F076FDFE2003F0FD
:1014D00079FD002003F070FD022003F06DFD202057
:1014E00003F070FD362003F06DFD082000E02CE0D5
:1014F00003F062FD3A2003F065FD552003F05CFD2A
:101500002B2003F05FFD002003F056FD002003F0C8
:1015100053FD012003F050FD3F2003F04DFD2A2034
:1015200003F050FD002003F047FD002003F044FDD0
:10153000012003F041FDDF2003F03EFD782004F0A0
:1015400017F9292003F03EFD4CE7A648808845F2B4
:101550001031884240F07C87ED2003F033FD0120FC
:1015600003F02AFDFE2003F027FDEE2003F02AFD04
:10157000DE2003F021FD212003F01EFDF12003F009
:1015800021FD012003F018FDDF2003F01BFD1020DA
:1015900003F012FDC42003F015FD8F2003F00CFDB5
:1015A000C62003F00FFD002003F006FDE22003F04B
:1015B00003FDE22003F000FDE22003F0FDFCBF206C
:1015C00003F000FDAA2003F0F7FCB02003F0FAFCC2
:1015D0000D2003F0F1FC002003F0EEFC0D2003F0E1
:1015E000EBFC002003F0E8FC112003F0E5FC0020F8
:1015F00003F0E2FC192003F0DFFC002003F0DCFC28
:10160000212003F0D9FC002003F0D6FC2D2003F0AC
:10161000D3FC002003F0D0FC3D2003F0CDFC0020E3
:1016200003F0CAFC5D2003F0C7FC002003F0C4FCFB
:101630005D2003F0C1FC002003F0BEFCB12003F0EC
:10164000C1FC802003F0B8FC002003F0B5FC8B2027
:1016500003F0B2FC002003F0AFFC962003F0ACFCDA
:10166000002003F0A9FCB22003F0ACFC002003F042
:10167000A3FC002003F0A0FC022003F09DFC00204E
:1016800003F09AFC032003F097FC002003F094FC85
:10169000B32003F097FC002003F08EFC002003F041
:1016A0008BFC002003F088FC002003F085FC002068
:1016B00003F082FC002003F07FFC002003F07CFCA0
:1016C000002003F079FC002003F076FC002003F0FA
:1016D00073FC002003F070FC002003F06DFC002080
:1016E00003F06AFC002003F067FC002003F064FCB8
:1016F000002003F061FC002003F05EFC002003F0FA
:101700005BFC002003F058FC002003F055FC002097
:1017100003F052FC002003F04FFC002003F04CFCCF
:10172000002003F049FCB42003F04CFC8B2003F0B4
:1017300043FC002003F040FC962003F03DFC002019
:1017400003F03AFCA12003F037FC002003F034FC46
:10175000B52003F037FC022003F02EFC002003F03C
:101760002BFC032003F028FC002003F025FC0420C0
:1017700003F022FC002003F01FFCB62003F022FC43
:10178000002003F019FC002003F016FCB72003F042
:1017900019FC002003F010FC002003F00DFC3F209A
:1017A00003F00AFC002003F007FC5E2003F004FCB9
:1017B000002003F001FC642003F0FEFB002003F096
:1017C000FBFB8C2003F0F8FB002003F0F5FBAC20C2
:1017D00003F0F2FB002003F0EFFBDC2003F0ECFB56
:1017E000002001E06802002003F0E6FB702003F017
:1017F000E3FB002003F0E0FB902003F0DDFB002082
:1018000003F0DAFBEB2003F0D7FB002003F0D4FB5E
:10181000DC2003F0D1FB002003F0CEFBB82003F066
:10182000D1FB002003F0C8FB002003F0C5FB002023
:1018300003F0C2FB002003F0BFFB002003F0BCFB61
:10184000002003F0B9FB002003F0B6FB002003F0FA
:10185000B3FBBA2003F0B6FB242003F0ADFB00205D
:1018600003F0AAFB002003F0A7FB002003F0A4FB79
:10187000C12003F0A7FB202003F09EFB002003F013
:101880009BFB542003F098FB002003F095FBFF2006
:1018900003F092FB002003F08FFBC22003F092FBC9
:1018A0000A2003F089FB002003F086FB042003F0EC
:1018B00083FB002003F080FBC32003F083FB3C206C
:1018C00003F07AFB002003F077FB3A2003F074FB6F
:1018D000002003F071FB392003F06EFB002003F0C1
:1018E0006BFB372003F068FB002003F065FB3C2016
:1018F00003F062FB002003F05FFB362003F05CFB8B
:10190000002003F059FB322003F056FB002003F0C7
:1019100053FB2F2003F050FB002003F04DFB2C2045
:1019200003F04AFB002003F047FB292003F044FBAF
:10193000002003F041FB262003F03EFB002003F0D3
:101940003BFB242003F038FB002003F035FB242070
:1019500003F032FB002003F02FFB232003F02CFBCD
:10196000002003F029FB3C2003F026FB002003F0BD
:1019700023FB362003F020FB002003F01DFB322068
:1019800003F01AFB002003F017FB2F2003F014FBD9
:10199000002003F011FB2C2003F00EFB002003F0CD
:1019A0000BFB292003F008FB002003F005FB262099
:1019B00003F002FB002003F0FFFA242003F0FCFAFE
:1019C000002003F0F9FA242003F0F6FA002003F0D7
:1019D000F3FA232003F0F0FA002003F0EDFAC4201C
:1019E00003F0F0FA622003F0E7FA002003F0E4FAD3
:1019F000052003F0E1FA002003F0DEFA842003F072
:101A0000DBFA002003F0D8FAF02003F0D5FA00202A
:101A100003F0D2FA182003F0CFFA002003F0CCFA3A
:101A2000A42003F0C9FA002003F0C6FA182003F03E
:101A3000C3FA002003F0C0FA502003F0BDFA0020E2
:101A400003F0BAFA0C2003F0B7FA002003F0B4FA5E
:101A5000172003F0B1FA002003F0AEFA952003F04E
:101A6000ABFA002003F0A8FAF32003F0A5FA002057
:101A700003F0A2FAE62003F09FFA002003F09CFA9C
:101A8000C52003F09FFA322003F096FA002003F0FD
:101A900093FA442003F090FA002003F08DFA6520B9
:101AA00003F08AFA002003F087FA762003F084FA24
:101AB000002003F081FA882003F07EFA002003F072
:101AC0007BFAC62003F07EFA202003F075FA00208E
:101AD00003F072FA172003F06FFA002003F06CFA9B
:101AE000012003F069FA002003F066FAC72003F032
:101AF00069FA002003F060FA002003F05DFA00208C
:101B000003F05AFA002003F057FAC82003F05AFAFB
:101B1000002003F051FA002003F04EFA002003F0F9
:101B20004BFA002003F048FAC92003F04BFA0020DA
:101B300003F042FA002003F03FFA002003F03CFAE1
:101B4000002003F039FA002003F036FA002003F0F9
:101B500033FA002003F030FA002003F02DFA0020C1
:101B600003F02AFA002003F027FA002003F024FAF9
:101B7000002003F021FA002003F01EFA002003F0F9
:101B80001BFA002003F018FA002003F015FAE020F9
:101B900003F018FA162003F00FFA002003F00CFAF5
:101BA0001C2003F009FA002003F006FA212003F0BC
:101BB00003FA002003F000FA362003F0FDF90020BC
:101BC00003F0FAF9462003F0F7F9002003F0F4F9E6
:101BD000522003F0F1F9002003F0EEF9642003F045
:101BE000EBF9002003F0E8F97A2003F0E5F9002092
:101BF00003F0E2F98B2003F0DFF9002003F0DCF9B9
:101C0000992003F0D9F9002003F0D6F9A82003F0B9
:101C1000D3F9002003F0D0F9B92003F0CDF900206A
:101C200003F0CAF9C42003F0C7F9002003F0C4F997
:101C3000CA2003F0C1F9002003F0BEF9D22003F05E
:101C4000BBF9002003F0B8F9D92003F0B5F9002062
:101C500003F0B2F9E02003F0AFF9002003F0ACF993
:101C6000F32003F0A9F9002003F0A6F9E12003F026
:101C7000A9F9162003F0A0F9002003F09DF91C201B
:101C800003F09AF9002003F097F9222003F094F969
:101C9000002003F091F9362003F08EF9002003F0C4
:101CA0008BF9452003F088F9002003F085F95220D4
:101CB00003F082F9002003F07FF9642003F07CF93F
:101CC000002003F079F97A2003F076F9002003F080
:101CD00073F98B2003F070F9002003F06DF999205F
:101CE00003F06AF9002003F067F9A82003F064F913
:101CF000002003F061F9B92003F05EF9002003F041
:101D00005BF9C42003F058F9002003F055F9CA200C
:101D100003F052F9002003F04FF9D22003F04CF900
:101D2000002003F049F9D82003F046F9002003F021
:101D300043F9E02003F040F9002003F03DF9F320DF
:101D400003F03AF9002003F037F9E22003F03AF902
:101D5000052003F031F9002003F02EF90B2003F0E9
:101D60002BF9002003F028F91B2003F025F90020AF
:101D700003F022F9342003F01FF9002003F01CF9CE
:101D8000442003F019F9002003F016F94F2003F066
:101D900013F9002003F010F9612003F00DF9002081
:101DA00003F00AF9792003F007F9002003F004F9A1
:101DB000882003F001F9002003F0FEF8972003F0DB
:101DC000FBF8002003F0F8F8A62003F0F5F8002057
:101DD00003F0F2F8B72003F0EFF8002003F0ECF87E
:101DE000C22003F0E9F8002003F0E6F8C72003F072
:101DF000E3F8002003F0E0F8D12003F0DDF8002044
:101E000003F0DAF8D62003F0D7F8002003F0D4F876
:101E1000DD2003F0D1F8002003F0CEF8F32003F02A
:101E2000CBF8002003F0C8F8E32003F0CBF805203E
:101E300003F0C2F8002003F0BFF80A2003F0BCF85A
:101E4000002003F0B9F81C2003F0B6F8002003F0DE
:101E5000B3F8332003F0B0F8002003F0ADF84420CD
:101E600003F0AAF8002003F0A7F8502003F0A4F82C
:101E7000002003F0A1F8622003F09EF8002003F098
:101E80009BF8782003F098F8002003F095F888205C
:101E900003F092F8002003F08FF8972003F08CF8FD
:101EA000002003F089F8A62003F086F8002003F054
:101EB00083F8B72003F080F8002003F07DF8C220FB
:101EC00003F07AF8002003F077F8C72003F074F8E5
:101ED000002003F071F8D12003F06EF8002003F029
:101EE0006BF8D52003F068F8002003F065F8DD20DA
:101EF00003F062F8002003F05FF8F32003F05CF8D1
:101F0000002003F059F8E42003F05CF8012003F00E
:101F100053F8002003F050F8012003F04DF80020A2
:101F200003F04AF8022003F047F8002003F044F8D9
:101F30002A2003F041F8002003F03EF83C2003F093
:101F40003BF8002003F038F84B2003F035F8002070
:101F500003F032F85D2003F02FF8002003F02CF896
:101F6000742003F029F8002003F026F8842003F001
:101F700023F8002003F020F8932003F01DF8002040
:101F800003F01AF8A22003F017F8002003F014F869
:101F9000B32003F011F8002003F00EF8BE2003F088
:101FA0000BF8002003F008F8C42003F005F8002027
:101FB00003F002F8CD2002F0FFFF002002F0FCFF4A
:101FC000D32002F0F9FF002002F0F6FFDD2002F03E
:101FD000F3FF002002F0F0FFF32002F0EDFF0020FD
:101FE00002F0EAFFE52002F0EDFF002002F0E4FF3E
:101FF000002002F0E1FF002002F0DEFF002002F0EE
:10200000DBFF022002F0D8FF002002F0D5FF2920DC
:1020100002F0D2FF002002F0CFFF3C2002F0CCFF04
:10202000002002F0C9FF4B2002F0C6FF002002F0A2
:10203000C3FF5D2002F0C0FF002002F0BDFF74204E
:1020400002F0BAFF002002F0B7FF842002F0B4FFD4
:10205000002002F0B1FF932002F0AEFF002002F05A
:10206000ABFFA22002F0A8FF002002F0A5FFB320E2
:1020700002F0A2FF002002F09FFFBE2002F09CFFB2
:10208000002002F099FFC42002F096FF002002F029
:1020900093FFCD2002F090FF002002F08DFFD320AF
:1020A00002F08AFF002002F087FFDC2002F084FFAC
:1020B000002002F081FFF32002F07EFF002002F0FA
:1020C0007BFFE62002F07EFF112002F075FF00206A
:1020D00002F072FF342002F06FFF002002F06CFF6C
:1020E000562002F069FF002002F066FF762002F021
:1020F00063FF002002F060FF772002F05DFF002008
:1021000002F05AFF662002F057FF002002F054FF51
:10211000882002F051FF002002F04EFF992002F0CB
:102120004BFF002002F048FFBB2002F045FF0020DB
:1021300002F042FF992002F03FFF002002F03CFF36
:10214000662002F039FF002002F036FF552002F031
:1021500033FF002002F030FF552002F02DFF002059
:1021600002F02AFF452002F027FF002002F024FFA2
:10217000432002F021FF002002F01EFF442002F065
:102180001BFF002002F018FFE72002F01BFF3220A7
:1021900002F012FF002002F00FFF552002F00CFFAA
:1021A000002002F009FF762002F006FF002002F076
:1021B00003FF662002F000FF002002F0FDFE672012
:1021C00002F0FAFE002002F0F7FE672002F0F4FEB3
:1021D000002002F0F1FE872002F0EEFE002002F067
:1021E000EBFE992002F0E8FE002002F0E5FEBB20A5
:1021F00002F0E2FE002002F0DFFE992002F0DCFE99
:10220000002002F0D9FE772002F0D6FE002002F076
:10221000D3FE442002F0D0FE002002F0CDFE562076
:1022200002F0CAFE002002F0C7FE232002F0C4FE26
:10223000002002F0C1FE332002F0BEFE002002F0BA
:10224000BBFE452002F0B8FE002002F0B5FEE820FB
:1022500002F0B8FE002002F0AFFE002002F0ACFE5B
:10226000992002F0A9FE002002F0A6FE872002F0CD
:10227000A3FE002002F0A0FE882002F09DFE0020B8
:1022800002F09AFE772002F097FE002002F094FE02
:10229000662002F091FE002002F08EFE882002F0FF
:1022A0008BFE002002F088FEAA2002F085FE0020AE
:1022B00002F082FEBB2002F07FFE002002F07CFED6
:1022C000992002F079FE002002F076FE662002F0EE
:1022D00073FE002002F070FE552002F06DFE00201B
:1022E00002F06AFE552002F067FE002002F064FE54
:1022F000442002F061FE002002F05EFE442002F065
:102300005BFE002002F058FE552002F055FE002032
:1023100002F052FEE92002F055FEAA2002F04CFE27
:10232000002002F049FE002002F046FE002002F0EC
:1023300043FE002002F046FEAA2002F03DFECF2020
:1023400002F040FE002002F037FE002002F034FED2
:10235000002002F031FE002002F02EFE002002F0EC
:102360002BFE002002F028FE002002F025FE0020B7
:1023700002F022FE002002F01FFE002002F01CFEF0
:10238000002002F019FE002002F016FE002002F0EC
:1023900013FE002002F010FE002002F00DFE0020CF
:1023A00002F00AFE002002F007FEF02002F00AFE12
:1023B000002002F001FE502002F0FEFD002002F09D
:1023C000FBFD002002F0F8FD002002F0F5FDF320F7
:1023D00002F0F8FD002002F0EFFDF92002F0F2FD1E
:1023E000062002F0E9FD102002F0E6FD292002F0AF
:1023F000E3FD002002F0E0FD3A2002F0E3FD55206D
:1024000002F0DAFD112002F0DDFD642003F0B0F9E6
:10241000292002F0D7FD352002F0D4FD002002F083
:10242000CBFD512002F0CEFDFF2002F0C5FD532070
:1024300002F0C8FD2C2002F0BFFD552002F0C2FDC5
:10244000822002F0B9FD2C2002F0BCFD02F0E9B8B8
:10245000FE48808845F2105188427DD155214FF4C5
:10246000704002F0BFFDAA214FF2010002F0BAFD58
:1024700052214FF2020002F0B5FD08214FF2030095
:1024800002F0B0FD01214FF2040002F0ABFD0D217E
:102490004FF4304002F0A6FD0D214BF2010002F096
:1024A000A1FD0D214BF2020002F09CFD34214FF4FE
:1024B000364002F097FD34214BF2016002F092FDAC
:1024C00034214BF2026002F08DFD0D214FF43140BA
:1024D00002F088FD0D214BF2011002F083FD0D2169
:1024E0004BF2021002F07EFD34214FF4374002F02F
:1024F00079FD34214BF2017002F074FD34214BF26E
:10250000027002F06FFD00214FF4324002F06AFDCC
:1025100000214BF2012002F065FD00214BF2022068
:1025200002F060FD24214FF4384002F05BFD2421CD
:102530004BF6010002F056FD24214BF6020002F09A
:1025400051FD01214FF43F4002F04CFD0F214FF4AB
:10255000334002F047FD00E0FDE30F214BF2013074
:1025600002F040FD0F214BF2023002F03BFD34211E
:102570004FF4394002F036FD34214BF6011002F0E1
:1025800031FD34214BF6021002F02CFD08214FF4EE
:10259000354002F027FD08214BF2015002F022FDE8
:1025A00008214BF2025002F01DFD03214FF442407E
:1025B00002F018FD24214FF43A4002F013FD2421CB
:1025C0004BF6012002F00EFD24214BF6022002F012
:1025D00009FD00214FF43C4002F004FD78214BF648
:1025E000014002F0FFFC00214BF6024002F0FAFC31
:1025F00000214FF43D4002F0F5FC78214BF60150EC
:1026000002F0F0FC00214BF6025002F0EBFC00213E
:102610004FF43E4002F0E6FC64214BF6016002F00C
:10262000E1FC00214FF4514002F0DCFC33214DF27B
:10263000011002F0D7FC00214DF2021002F0D2FC92
:1026400034214DF2031002F0CDFC00214DF20410B4
:1026500002F0C8FC3A214DF2051002F0C3FC002143
:102660004DF2061002F0BEFC4A214DF2071002F0B6
:10267000B9FC00214DF2081002F0B4FC5C214DF2CF
:10268000091002F0AFFC00214DF20A1002F0AAFC82
:1026900081214DF20B1002F0A5FC00214DF20C102F
:1026A00002F0A0FCA6214DF20D1002F09BFC0021CF
:1026B0004DF20E1002F096FCE5214DF20F1002F0E3
:1026C00091FC01214DF2101002F08CFC13214DF20F
:1026D000111002F087FC01214DF2121002F082FC71
:1026E00054214DF2131002F07DFC01214DF2141023
:1026F00002F078FC82214DF2151002F073FC0121EA
:102700004DF2161002F06EFCCA214DF2171002F0C5
:1027100069FC02214DF2181002F064FC00214DF218
:10272000191002F05FFC02214DF21A1002F05AFC5F
:1027300001214DF21B1002F055FC02214DF21C103C
:1027400002F050FC34214DF21D1002F04BFC02212E
:102750004DF21E1002F046FC67214DF21F1002F0F0
:1027600041FC02214DF2201002F03CFC84214DF28C
:10277000211002F037FC02214DF2221002F032FC4F
:10278000A4214DF2231002F02DFC02214DF2241061
:1027900002F028FCB7214DF2251002F023FC0221A3
:1027A0004DF2261002F01EFCCF214DF2271002F050
:1027B00019FC02214DF2281002F014FCDE214DF22A
:1027C000291002F00FFC02214DF22A1002F00AFC3F
:1027D000F2214DF22B1002F005FC02214DF22C10DB
:1027E00002F000FCFE214DF22D1002F0FBFB032154
:1027F0004DF22E1002F0F6FB10214DF22F1002F0D8
:10280000F1FB03214DF2301002F0ECFB33214DF2CD
:10281000311002F0E7FB03214DF2321002F0E2FB2F
:102820006D214DF2331002F0DDFB00214FF45240D8
:1028300002F0D8FB33214DF2012002F0D3FB00213E
:102840004DF2022002F0CEFB342101E068020020AC
:102850004DF2032002F0C6FB00214DF2042002F0ED
:10286000C1FB3A214DF2052002F0BCFB00214DF2E4
:10287000062002F0B7FB4A214DF2072002F0B2FB1E
:1028800000214DF2082002F0ADFB5C214DF2092041
:1028900002F0A8FB00214DF20A2002F0A3FB8121E7
:1028A0004DF20B2002F09EFB00214DF20C2002F0B5
:1028B00099FBA6214DF20D2002F094FB00214DF270
:1028C0000E2002F08FFBE5214DF20F2002F08AFB73
:1028D00001214DF2102002F085FB13214DF2112051
:1028E00002F080FB01214DF2122002F07BFB54210B
:1028F0004DF2132002F076FB01214DF2142002F07C
:1029000071FB82214DF2152002F06CFB01214DF28A
:10291000162002F067FBCA214DF2172002F062FB7D
:1029200002214DF2182002F05DFB00214DF219202A
:1029300002F058FB02214DF21A2002F053FB012154
:102940004DF21B2002F04EFB02214DF21C2002F042
:1029500049FB34214DF21D2002F044FB02214DF2CF
:102960001E2002F03FFB67214DF21F2002F03AFBD0
:1029700002214DF2202002F035FB84214DF221206E
:1029800002F030FB02214DF2222002F02BFBA421A9
:102990004DF2232002F026FB02214DF2242002F00A
:1029A00021FBB7214DF2252002F01CFB02214DF244
:1029B000262002F017FBCF214DF2272002F012FB58
:1029C00002214DF2282002F00DFBDE214DF22920DC
:1029D00002F008FB02214DF22A2002F003FBF22153
:1029E0004DF22B2002F0FEFA02214DF22C2002F0D3
:1029F000F9FAFE214DF22D2002F0F4FA03214DF2F6
:102A00002E2002F0EFFA10214DF22F2002F0EAFA08
:102A100003214DF2302002F0E5FA33214DF231204E
:102A200002F0E0FA03214DF2322002F0DBFA6D21D0
:102A30004DF2332002F0D6FA00214FF4534002F059
:102A4000D1FA33214DF2013002F0CCFA00214DF2DF
:102A5000023002F0C7FA34214DF2033002F0C2FA1C
:102A600000214DF2043002F0BDFA3A214DF205305A
:102A700002F0B8FA00214DF2063002F0B3FA4A2112
:102A80004DF2073002F0AEFA00214DF2083002F0AC
:102A9000A9FA5C214DF2093002F0A4FA00214DF2AE
:102AA0000A3002F09FFA81214DF20B3002F09AFABF
:102AB00000214DF20C3002F095FAA6214DF20D30B6
:102AC00002F090FA00214DF20E3002F08BFAE5216F
:102AD0004DF20F3002F086FA01214DF2103002F073
:102AE00081FA13214DF2113002F07CFA01214DF2EE
:102AF000123002F077FA54214DF2133002F072FADC
:102B000001214DF2143002F06DFA82214DF21530A0
:102B100002F068FA01214DF2163002F063FACA2180
:102B20004DF2173002F05EFA02214DF2183002F039
:102B300059FA00214DF2193002F054FA02214DF2F7
:102B40001A3002F04FFA01214DF21B3002F04AFA1E
:102B500002214DF21C3002F045FA34214DF21D30B5
:102B600002F040FA02214DF21E3002F03BFA6721DA
:102B70004DF21F3002F036FA02214DF2203002F001
:102B800031FA84214DF2213002F02CFA02214DF26B
:102B9000223002F027FAA4214DF2233002F022FA6B
:102BA00002214DF2243002F01DFAB7214DF22530FA
:102BB00002F018FA02214DF2263002F013FACF216A
:102BC0004DF2273002F00EFA02214DF2283002F0C9
:102BD00009FADE214DF2293002F004FA02214DF209
:102BE0002A3002F0FFF9F2214DF22B3002F0FAF90F
:102BF00002214DF22C3002F0F5F9FE214DF22D307C
:102C000002F0F0F903214DF22E3002F0EBF9102121
:102C10004DF22F3002F0E6F903214DF2303002F090
:102C2000E1F933214DF2313002F0DCF903214DF2AC
:102C3000323002F0D7F96D214DF2333002F0D2F983
:102C400000214FF4544002F0CDF933214DF2014000
:102C500002F0C8F900214DF2024002F0C3F934211C
:102C60004DF2034002F0BEF900214DF2044002F0A3
:102C7000B9F93A214DF2054002F0B4F900214DF2C4
:102C8000064002F0AFF94A214DF2074002F0AAF9DE
:102C900000214DF2084002F0A5F95C214DF20940F7
:102CA00002F0A0F900214DF20A4002F09BF98121C7
:102CB0004DF20B4002F096F900214DF20C4002F06B
:102CC00091F9A6214DF20D4002F08CF900214DF250
:102CD0000E4002F087F9E5214DF20F4002F082F933
:102CE00001214DF2104002F07DF913214DF2114007
:102CF00002F078F901214DF2124002F073F95421EB
:102D00004DF2134002F06EF901214DF2144002F031
:102D100069F982214DF2154002F064F901214DF26A
:102D2000164002F05FF9CA214DF2174002F05AF93D
:102D300002214DF2184002F055F900214DF21940E0
:102D400002F050F902214DF21A4002F04BF9012134
:102D50004DF21B4000E006E302F044F902214DF27F
:102D60001C4002F03FF934214DF21D4002F03AF9C7
:102D700002214DF21E4002F035F967214DF21F404D
:102D800002F030F902214DF2204002F02BF98421AB
:102D90004DF2214002F026F902214DF2224002F0CC
:102DA00021F9A4214DF2234002F01CF902214DF239
:102DB000244002F017F9B7214DF2254002F012F934
:102DC00002214DF2264002F00DF9CF214DF22740AD
:102DD00002F008F902214DF2284002F003F9DE2149
:102DE0004DF2294002F0FEF802214DF22A4002F095
:102DF000F9F8F2214DF22B4002F0F4F802214DF2E5
:102E00002C4002F0EFF8FE214DF22D4002F0EAF8DE
:102E100003214DF22E4002F0E5F810214DF22F4033
:102E200002F0E0F803214DF2304002F0DBF83321EC
:102E30004DF2314002F0D6F803214DF2324002F05B
:102E4000D1F86D214DF2334002F0CCF800214FF45F
:102E5000554002F0C7F833214DF2015002F0C2F89C
:102E600000214DF2025002F0BDF834214DF2035022
:102E700002F0B8F800214DF2045002F0B3F83A2104
:102E80004DF2055002F0AEF800214DF2065002F06E
:102E9000A9F84A214DF2075002F0A4F800214DF2A2
:102EA000085002F09FF85C214DF2095002F09AF8A8
:102EB00000214DF20A5002F095F881214DF20B509D
:102EC00002F090F800214DF20C5002F08BF8A62190
:102ED0004DF20D5002F086F800214DF20E5002F036
:102EE00081F8E5214DF20F5002F07CF801214DF2FE
:102EF000105002F077F813214DF2115002F072F8E1
:102F000001214DF2125002F06DF854214DF2135090
:102F100002F068F801214DF2145002F063F88221AA
:102F20004DF2155002F05EF801214DF2165002F0FC
:102F300059F8CA214DF2175002F054F802214DF20F
:102F4000185002F04FF800214DF2195002F04AF8E3
:102F500002214DF21A5002F045F801214DF21B50AA
:102F600002F040F802214DF21C5002F03BF83421EF
:102F70004DF21D5002F036F802214DF21E5002F0C3
:102F800031F867214DF21F5002F02CF802214DF26A
:102F9000205002F027F884214DF2215002F022F84F
:102FA00002214DF2225002F01DF8A4214DF22350CF
:102FB00002F018F802214DF2245002F013F8B72164
:102FC0004DF2255002F00EF802214DF2265002F08B
:102FD00009F8CF214DF2275002F004F802214DF2FA
:102FE000285001F0FFFFDE214DF2295001F0FAFFD9
:102FF00002214DF22A5001F0F5FFF2214DF22B5043
:1030000001F0F0FF02214DF22C5001F0EBFFFE2108
:103010004DF22D5001F0E6FF03214DF22E5001F04C
:10302000E1FF10214DF22F5001F0DCFF03214DF2A2
:10303000305001F0D7FF33214DF2315001F0D2FF73
:1030400003214DF2325001F0CDFF6D214DF233508E
:1030500001F0C8FF00214FF4564001F0C3FF3321B7
:103060004DF2016001F0BEFF00214DF2026001F05F
:10307000B9FF34214DF2036001F0B4FF00214DF29D
:10308000046001F0AFFF3A214DF2056001F0AAFFA4
:1030900000214DF2066001F0A5FF4A214DF20760C4
:1030A00001F0A0FF00214DF2086001F09BFF5C21C0
:1030B0004DF2096001F096FF00214DF20A6001F027
:1030C00091FF81214DF20B6001F08CFF00214DF248
:1030D0000C6001F087FFA6214DF20D6001F082FF28
:1030E00000214DF20E6001F07DFFE5214DF20F60F1
:1030F00001F078FF01214DF2106001F073FF132100
:103100004DF2116001F06EFF01214DF2126001F0ED
:1031100069FF54214DF2136001F064FF01214DF26B
:10312000146001F05FFF82214DF2156001F05AFF3B
:1031300001214DF2166001F055FFCA214DF21760D2
:1031400001F050FF02214DF2186001F04BFF002109
:103150004DF2196001F046FF02214DF21A6001F0B4
:1031600041FF01214DF21B6001F03CFF02214DF2B5
:103170001C6001F037FF34214DF21D6001F032FF79
:1031800002214DF21E6001F02DFF67214DF21F60FC
:1031900001F028FF02214DF2206001F023FF84217D
:1031A0004DF2216001F01EFF02214DF2226001F07C
:1031B00019FFA4214DF2236001F014FF02214DF20A
:1031C000246001F00FFFB7214DF2256001F00AFFE6
:1031D00002214DF2266001F005FFCF214DF227605C
:1031E00001F000FF02214DF2286001F0FBFEDE211C
:1031F0004DF2296001F0F6FE02214DF22A6001F045
:10320000F1FEF2214DF22B6001F0ECFE02214DF2B5
:103210002C6001F0E7FEFE214DF22D6001F0E2FE90
:1032200003214DF22E6001F0DDFE10214DF22F60E2
:1032300001F0D8FE03214DF2306001F0D3FE3321BE
:103240004DF2316001F0CEFE03214DF2326001F00B
:10325000C9FE6D214DF2336001F0C4FE55214FF4DB
:10326000704001F0BFFEAA214FF2010001F0BAFE4A
:1032700052214FF2020001F0B5FE08214FF2030087
:1032800001F0B0FE00214FF2040001F0ABFECC21B2
:103290004FF4314001F0A6FE00214BF2011001F085
:1032A000A1FE05214FF4364001F09CFE70214FF441
:1032B000374001F097FE70214BF2017001F092FE51
:1032C00001214FF4384001F08DFE03214BF601003F
:1032D00001F088FE03214BF6020001F083FE03217A
:1032E0004BF6030001F07EFE02214FF43C4001F05A
:1032F00079FE00214BF6014001F074FE00214BF6EF
:10330000024001F06FFED0214FF4494001F06AFE07
:1033100002214CF6011001F065FE50214CF602101E
:1033200001F060FE50214CF6031001F05BFE5021CD
:103330004CF6041001F056FE00214FF4545001F0F9
:1033400051FE55214FF4685001F04CFE4FF4885067
:1033500001F038FE782002F029FA4FF4245001F0F1
:1033600031FE01F05EB9FE48808849F2253188427D
:103370007ED147F6F001E52001F034FE4FF4807174
:10338000012001F02FFE4FF4E061022001F02AFE3F
:1033900041F23001032001F025FE0021042001F05C
:1033A00021FE40F20221082001F01CFE002109202C
:1033B00001F018FE00210A2001F014FE00210C206B
:1033C00001F010FE00210D2001F00CFE00210F2065
:1033D00001F008FE0021102001F004FE0721112059
:1033E00001F000FE0021122001F0FCFD002113205D
:1033F00001F0F8FD0021072001F0F4FD41F2906199
:10340000102001F0EFFD40F22721112001F0EAFD2C
:103410009D21122001F0E6FD4FF4C851132001F068
:10342000E1FD2521292001F0DDFD0D212B2001F0FA
:10343000D9FD0721302001F0D5FD40F203313120C4
:1034400001F0D0FD0321322001F0CCFD40F2062135
:10345000352001F0C7FD0821362001F0C3FD40F200
:103460000641372001F0BEFD4FF44171382000E0E5
:1034700057E001F0B7FD0721392001F0B3FD40F21C
:1034800002613C2001F0AEFD08213D2001F0AAFDC3
:103490000021502001F0A6FDEF21512001F0A2FDF6
:1034A0000021522001F09EFD40F23F11532001F017
:1034B00099FD4FF42741602001F094FD0121612026
:1034C00001F090FD00216A2001F08CFD0021802098
:1034D00001F088FD0021812001F084FD002182207F
:1034E00001F080FD0021832001F07CFD002184207B
:1034F00001F078FD0021852001F074FD102190205D
:1035000001F070FD4FF4C061922001F06BFD40F2BC
:103510003311072001F066FD2221002001F062FD39
:103520001FE78F48808849F2283188427ED141F2D6
:103530008F01EC2001F056FD41F23421EF2001F023
:1035400051FD4FF48071012001F04CFD4FF4E0611A
:10355000022001F047FD41F23001032001F042FD5D
:103560000021042001F03EFD40F20221082001F07C
:1035700039FD0021092001F035FD00210A2001F06C
:1035800031FD01210C2001F02DFD00210D2001F065
:1035900029FD00210F2001F025FD0021102001F060
:1035A00021FD0721112001F01DFD0021122001F055
:1035B00019FD0021132001F015FD0121072001F064
:1035C00011FD322002F0D4F841F29041102001F0B8
:1035D00009FD40F22721112001F004FD322002F004
:1035E000C7F88A21122001F0FDFC322002F0C0F859
:1035F0004FF4D051132001F0F5FC0621292001F0F1
:10360000F1FC0D212B2001F0EDFC322002F0B0F88E
:103610000021202001F0E6FC0021212001F0E2FC45
:10362000322002F0A5F80021302000E074E001F023
:10363000D9FC40F20461312001F0D4FC40F20531A4
:10364000322001F0CFFC0021352001F0CBFC40F608
:103650000941362001F0C6FC4FF40171372001F01A
:10366000C1FC40F20131382001F0BCFC40F207718E
:10367000392001F0B7FC00213C2001F0B3FC40F6FA
:103680000A213D2001F0AEFC322002F071F8002149
:10369000502001F0A7FCEF21512001F0A3FC0021F4
:1036A000522001F09FFC40F23F11532001F09AFCA0
:1036B0004FF42741602001F095FC0121612001F0C9
:1036C00091FC00216A2001F08DFC0021802001F096
:1036D00089FC0021812001F085FC0021822001F07D
:1036E00081FC0021832001F07DFC0021842001F079
:1036F00079FC0021852001F075FC1021902001F05B
:1037000071FC4FF4C061922001F06CFC40F2331167
:10371000072001F067FC24E61148808849F2203137
:1037200088427DD10021084601F05CFC4FF4807195
:10373000012001F057FC4FF4E061022001F052FC3F
:1037400041F23001032001F04DFC0021042001F082
:1037500049FC40F20221082001F044FC002101E074
:1037600068020020092001F03DFC00210A2001F040
:1037700039FC01210C2001F035FC00210D2001F065
:1037800031FC00210F2001F02DFC322001F0F0FF70
:1037900040F20111072001F025FC322001F0E8FF82
:1037A0004FF48651102001F01DFC0721112001F07B
:1037B00019FC4FF48871122001F014FC4FF43061B1
:1037C000132001F00FFC0021292001F00BFC44F232
:1037D00010012B2001F006FC0021502001F002FC1A
:1037E000EF21512001F0FEFB0021522001F0FAFBF5
:1037F00040F23F11532001F0F5FB4FF41C516020C3
:1038000001F0F0FB0121612001F0ECFB00216A20B6
:1038100001F0E8FB0021802001F0E4FB002100E042
:1038200031E0812001F0DEFB0021822001F0DAFB93
:103830000021832001F0D6FB0021842001F0D2FB7F
:103840000021852001F0CEFB1021902001F0CAFB61
:103850000021922001F0C6FB0121932001F0C2FB60
:103860004FF48871952001F0BDFB0021972001F0F5
:10387000B9FB0021982001F0B5FB40F2731107203D
:1038800001F0B0FB6DE5FE48808849F23131884295
:103890007DD141F21401E72001F0A4FB4FF48071C7
:1038A000012001F09FFB4FF40071022001F09AFB10
:1038B00041F23801032001F095FB40F2022108207B
:1038C00001F090FB0021092001F08CFB00210A206F
:1038D00001F088FB00210C2001F084FB00210D2069
:1038E00001F080FB00210F2001F07CFB0021102063
:1038F00001F078FB0721112001F074FB0021122058
:1039000001F070FB0021132001F06CFBC82001F0D6
:103910002FFF41F29061102001F064FB40F227215B
:10392000112001F05FFB322001F022FF0C21122058
:1039300001F058FB322001F01BFF4FF4006113200F
:1039400001F050FB1121292001F04CFB0B212B2011
:1039500001F048FB322001F00BFF0021202001F094
:1039600041FB40F23F11212001F03CFB00213020BF
:1039700001F038FB4FF48371312001F033FB00215B
:10398000322001F02FFB4FF40171352000E064E09C
:1039900001F028FB41F20A61362001F023FB40F2DE
:1039A0000771372001F01EFB4FF48371382001F0BE
:1039B00019FB40F20771392001F014FB40F202417B
:1039C0003C2001F00FFB40F60F413D2001F00AFBC7
:1039D0000021502001F006FBEF21512001F002FBF5
:1039E0000021522001F0FEFA40F23F11532001F075
:1039F000F9FA4FF41C51602001F0F4FA0121612022
:103A000001F0F0FA00216A2001F0ECFA0021802098
:103A100001F0E8FA0021812001F0E4FA002182207F
:103A200001F0E0FA0021832001F0DCFA002184207B
:103A300001F0D8FA0021852001F0D4FA102190205D
:103A400001F0D0FA4FF4C061922001F0CBFA40F2BD
:103A50003311072001F0C6FA83E48948808845F2D3
:103A6000084188427ED14FF48071012001F0BAFAFA
:103A70004FF4E061022001F0B5FA41F23001032079
:103A800001F0B0FA0021042001F0ACFA40F2072165
:103A9000082001F0A7FA0021092001F0A3FA002173
:103AA0000A2001F09FFA00210C2001F09BFA00216E
:103AB0000D2001F097FA00210F2001F093FA142055
:103AC00001F056FE41F2B061102001F08BFA0121A5
:103AD000112001F087FA0121172001F083FA4FF439
:103AE0009C71122001F07EFA4FF40061132001F066
:103AF00079FA0921292001F075FA09212A2001F01B
:103B000071FA0021A42001F06DFA0021502001F08B
:103B100069FAEF21512001F065FA0021522001F0ED
:103B200061FA40F23F11532001F05CFA4FF41C514E
:103B3000602001F057FA0121612001F053FA0021C1
:103B40006A2001F04FFA0021802001F04BFA002199
:103B5000812001F047FA0021822001F043FA002180
:103B6000832000E023E001F03DFA0021842001F0F1
:103B700039FA0021852001F035FA1321902001F057
:103B800031FA0021922001F02DFA0321932001F057
:103B900029FA4FF48871952001F024FA40F273114C
:103BA000072001F01FFA322001F0E2FDB8E43448AA
:103BB000808841F2055188427ED10021072001F022
:103BC00011FA322001F0D4FD4FF48E71122001F071
:103BD00009FA0121A42001F005FA0F21082001F0C3
:103BE00001FA08210A2001F0FDF908210D2001F059
:103BF000F9F940F20771302001F0F4F90721312082
:103C000001F0F0F940F20361322001F0EBF94FF4DA
:103C1000E061332001F0E6F940F20221342001F0A6
:103C2000E1F90221352001F0DDF941F60F7136206E
:103C300001F0D8F940F20771372001F0D3F90021E3
:103C4000382001F0CFF90021392001F0CBF940F202
:103C500007713A2001F0C6F900213B2001F0C2F9BA
:103C600007213C2001F0BEF900213D2001F0BAF906
:103C7000322001F07DFD0121072001F0B3F901E0C0
:103C8000680200200121172001F0ACF9322001F078
:103C90006FFD4FF4BD51102001F0A4F940F217213F
:103CA000112001F09FF94FF48F71122001F09AF961
:103CB0004FF47061132000E097E001F093F90021C8
:103CC0002A2001F08FF90A21292001F08BF94FF405
:103CD0009F71122001F086F90021502001F082F935
:103CE000EF21512001F07EF90021522001F07AF9F4
:103CF00040F23F11532001F075F94FF41C51602040
:103D000001F070F90121612001F06CF900216A20B5
:103D100001F068F90021802001F064F90021812080
:103D200001F060F90021822001F05CF9002183207C
:103D300001F058F90021842001F054F90021852078
:103D400001F050F91321902001F04CF94FF440712B
:103D5000922001F047F90521932001F043F9002159
:103D6000952001F03FF90021972001F03BF9002157
:103D7000982001F037F94FF48071012001F032F9F9
:103D80004FF4E061022001F02DF941F238010320E7
:103D900001F028F90021042001F024F900210C2071
:103DA00001F020F900210F2001F01CF90021202052
:103DB00001F018F90021212001F014F92121072038
:103DC00001F010F9142001F0D3FC6121072001F06B
:103DD00009F9142001F0CCFC40F27311072001F026
:103DE00001F9142001F0C4FC95E4FE4880884BF2F0
:103DF000055188427ED10021084601F0F3F80021E8
:103E0000084601F0EFF80021084601F0EBF8002128
:103E1000084601F0E7F80121A42001F0E3F814209E
:103E200001F0A6FC4FF41C51602001F0DBF840F2D9
:103E30000221082001F0D6F84FF40571302001F07E
:103E4000D1F843F21571312001F0CCF840F2046151
:103E5000322001F0C7F840F61661332001F0C2F8B5
:103E600042F21121342001F0BDF84FF4A851352061
:103E700001F0B8F848F20751362001F0B3F841F2EA
:103E80000741372001F0AEF841F20341382001F03C
:103E9000A9F82021392001F0A5F81A21902001F07D
:103EA000A1F80021102001F09DF80721112001F058
:103EB00099F80021122001F095F80021132001F05B
:103EC00091F8142001F054FC4FF4E661102001F049
:103ED00089F840F23711112001F084F8142001F024
:103EE00047FC4FF4DC71122001F07CF8142001F043
:103EF0003FFC00E083E04FF47061132001F072F8A2
:103F000080212A2001F06EF84821292001F06AF86A
:103F1000142001F02DFC4FF48071012001F062F8B3
:103F20004FF4E061022001F05DF841F23801032016
:103F300001F058F840F20221082001F053F8002166
:103F40000A2001F04FF800210C2001F04BF800216D
:103F50000D2001F047F830210E2001F043F8002138
:103F6000502001F03FF8EF21512001F03BF80021F3
:103F7000522001F037F840F23F11532001F032F89F
:103F80004FF41C51602001F02DF80121612001F057
:103F900029F800216A2001F025F81121902001F074
:103FA00021F84FF4C061922001F01CF840F2024168
:103FB000932001F017F80221942001F013F8142047
:103FC00001F0D6FB0121072001F00CF8142001F0CC
:103FD000CFFB6121072001F005F840F273110720A3
:103FE00001F000F80021202000F0FCFF002121203A
:103FF00000F0F8FF2221002000F0F4FF11E37948DF
:1040000080884CF2055188427ED10021084600F09C
:10401000E9FF0021084600F0E5FF142001F0A8FBAD
:104020000021084600F0DEFF0021084600F0DAFF1C
:104030000021084600F0D6FF0021084600F0D2FF1C
:104040000121A42000F0CEFF142001F091FB4FF4D9
:104050001C51602000F0C6FF40F60601082000F069
:10406000C1FF40F20371302000F0BCFF012131207C
:1040700000F0B8FF0421322000F0B4FF4FF481714A
:10408000332000F0AFFF4FF44071342000F0AAFF5E
:1040900040F20311352000F0A5FF1F21362000F06B
:1040A000A1FF40F20371372000F09CFF012138206E
:1040B00000F098FF0421392000F094FF1521902092
:1040C00000F090FF4FF48261102000F08BFF40F26F
:1040D0004721112000F086FF4FF4DE71122000F01E
:1040E00081FF4FF46061132000F07CFF782001F025
:1040F0003FFB4FF48071012000F074FF4FF400711A
:10410000022000F06FFF00E050E041F23001032098
:1041100000F068FF08210A2000F064FF00210C2055
:1041200000F060FF20210E2000F05CFF00210F2036
:1041300000F058FF0021202000F054FF0021212032
:1041400000F050FF3D212A2000F04CFF142001F028
:104150000FFB2D21292000F045FF0021502000F009
:1041600041FF4DF2EF01512000F03CFF00215220B1
:1041700000F038FF40F23F11532000F033FF0021E0
:10418000612000F02FFF00216A2000F02BFF4FF488
:104190004071922000F026FF0521932000F022FFBD
:1041A0004FF48071072000F01DFF3AE20D4880882F
:1041B00044F2315188427CD10121002000F012FFED
:1041C0000A2001F0D5FA41F22861102000F00AFF20
:1041D0000E21122000F006FF40F63921132000F0D6
:1041E00001FF01E0680200200A2001F0C1FA40212D
:1041F000112000F0F7FE5021152000F0F3FE0A20F8
:1042000001F0B6FA1E21122000F0ECFE0A2001F0A7
:10421000AFFA4FF4B151102000F0E4FE42F639211C
:10422000132000F0DFFE0A2001F0A2FA4FF48071A3
:10423000012000F0D7FE4FF44071022000F0D2FEC2
:1042400041F23801032000F0CDFE40F202210820A7
:1042500000F0C8FE08210A2000F0C4FE0021302032
:1042600000F0C0FE40F20241312000F0BBFE4FF4EE
:104270008371322000F0B6FE40F20351332000F08B
:10428000B1FE4FF48271342000F0ACFE40F20131F7
:10429000352000F0A7FE40F20771362000F0A2FEA4
:1042A00040F20531372000F09DFE4FF402713820B6
:1042B00000E040E000F096FE40F60B71392000F07F
:1042C00091FE0221412000F08DFE4FF41C51602030
:1042D00000F088FE0121612000F084FE4FF404719B
:1042E000902000F07FFE4FF48571922000F07AFE5E
:1042F0000421932000F076FE4FF48071A02000F09E
:1043000071FE0121072000F06DFE2121072000F041
:1043100069FE2321072000F065FE3321072000F00D
:1043200061FE40F23311072000F05CFE0021A02066
:1043300000F058FE75E1C048808844F2355188424B
:104340007ED13021152000F04DFE10219A2000F082
:1043500049FE2021112000F045FE43F228411020A3
:1043600000F040FE0221122000F03CFE41F2380134
:10437000132000F037FE282001F0FAF91221084638
:1043800000F030FE282001F0F3F943F22041102024
:1043900000F028FE43F23801132000F023FE4620EF
:1043A00001F0E6F90021302000F01CFE40F202414D
:1043B000312000F017FE40F20731322000F012FEEB
:1043C0004FF44171332000F00DFE0421342000F041
:1043D00009FE40F20141352000F004FE40F2077171
:1043E000362000F0FFFD40F20531372000F0FAFDE5
:1043F0004FF4C261382000F0F5FD4FF4C26139205E
:1044000000F0F0FD4FF48071012000F0EBFD4FF45F
:104410004071022000F0E6FD41F23001032000F07F
:10442000E1FD40F60801082000F0DCFD08210A202B
:1044300000F0D8FD4FF41C51602000F0D3FD00E0E7
:1044400031E00121612000F0CDFD4FF49F719020FB
:1044500000F0C8FD4FF48071922000F0C3FD4FF4CE
:104460008071932000F0BEFD4FF44051A02000F079
:10447000B9FD1021A32000F0B5FD0121072000F0B7
:10448000B1FD2121072000F0ADFD2321072000F020
:10449000A9FD3321072000F0A5FD40F233110720CC
:1044A00000F0A0FDBDE06448808841F663118842B9
:1044B000F8D1E22000F086FD1D2000F07DFD0220F5
:1044C00000F07AFD042000F077FD642001F06EF921
:1044D000E02000F077FD012000F06EFD0A2001F0E1
:1044E00047F9E02000F06EFD032000F065FD0C2090
:1044F00001F03EF9012000F065FD0A2001F038F9D5
:10450000E62000F05FFD2F2000F056FDFF2000F0B8
:1045100053FDFF2000F050FDB02000F053FD20209F
:1045200000F04AFD002000F047FD032000F044FDAC
:1045300040F21F3000F040FD012000F03DFD40F250
:10454000DF1000F039FD002000F036FDB42000F04F
:1045500039FD042000F030FD40F21F4000F02CFD3A
:10456000002000F029FD2E2000F026FD002000F0A4
:1045700023FD002000F020FD002000F01DFD0020A4
:1045800000F01AFDB62000F01DFD022000F014FD21
:104590004FF4037000F010FD002000F00DFD172017
:1045A00000F00AFD152000F007FD002000F004FDDA
:1045B000002000F001FDF02000F004FD032000F0D9
:1045C000FBFC292000F0FEFCD02000F0FBFC0020CA
:1045D00000F0F2FCBE2000F0F5FC052000F0ECFC41
:1045E000FE2000F0E9FC012000F0E6FC002000F0D5
:1045F000E3FC002000F0E0FC002000F0DDFCB8202F
:1046000000F0E0FC032000F0D7FC012000F0D4FC17
:10461000BA2000F0D7FC012000F0CEFC642000F0AE
:10462000E7F80020FCF754F90120044908604FF630
:10463000FF70FCF717F910BD68020020808121424D
:1046400010B50246012000E050430B00A1F1010427
:10465000E1B2F9D110BD000008B503480088009010
:10466000BDF8000008BD00000008006C2DE9F04115
:1046700005460E4600240027A04656480088A8425A
:1046800003DD54484088B04202DC0020BDE8F081E0
:104690003146284600F04CFA4E48808849F24131B4
:1046A000884211D04B48808846F6040188420BD0DE
:1046B0004848808845F21031884205D045488088B6
:1046C00041F66311884203D12E2000F07BFC0DE0FF
:1046D0004048808845F21051884204D14FF4385048
:1046E00000F070FC02E0222000F06CFC3948808869
:1046F00049F22031884202D1022001F0EFF8FFF7A1
:10470000ABFF04463348808841F66311884201D1EB
:104710002046BBE7022001F0E1F8FFF79DFF0446C9
:104720002C48808849F2413188420BD02948808842
:1047300045F21031884205D02648808845F2105154
:1047400088420AD1022001F0C9F8FFF785FF8046B0
:10475000E7B24FF6FF7000EA07271E48808849F24B
:104760002531884216D01B48808844F23551884252
:1047700010D018488088091F88420BD015488088BF
:104780004BF20551884205D0124880884CF2055101
:10479000884201D1204679E70E48808849F24131AC
:1047A00088420BD00B48808845F21031884205D0F2
:1047B0000848808845F21051884207D1E012C002B3
:1047C000B91240EA411040EAE8205FE72046FCF7D2
:1047D0003CF85BE76802002010B50446204600F074
:1047E000F1FB052000F0E2FFFFF736FF10BD0000EF
:1047F0002DE9F0470446BE2000F0E4FB052000F060
:10480000DBFB204602F0B5F907464FF066320C4B51
:1048100002F0C2F9054602F07FF91FFA80F9484616
:1048200000F0CAFB012000F0C7FBFF2000F0C4FB32
:10483000002000F0C1FB002000F0BEFBBDE8F087C7
:104840006666044070B5044600230026B7488079A8
:1048500001280BD1B548808846F60401884205D06E
:10486000B248808841F66311884208D1AF48807908
:10487000F0B9AE48808841F66311884218D1082CFF
:1048800015D2DFE804F00406080A0C0E1012062404
:104890000DE007240BE0042409E0052407E00124CF
:1048A00005E0002403E0032401E0022400BF00BF70
:1048B0009E48808849F24131884217D09B488088C1
:1048C00046F60401884211D09848808845F210319C
:1048D00088420BD09548808845F21051884205D017
:1048E0009248808841F6631188427DD1082C1CD201
:1048F000DFE804F00406090C0F12151800BF14E0DD
:1049000043F0800311E043F040030EE043F0C003A6
:104910000BE043F0200308E043F0600305E043F0C0
:10492000A00302E043F0E00300BF00BF7F4880889F
:1049300045F21051884202D14FF4585600E0362615
:104940007A48808845F2103188420DD077488088B7
:1049500045F21051884207D07448808841F66311AF
:10496000884201D043F008037048808846F604016D
:10497000884201D143F002031946304600F032FB71
:104980006A48808841F6631188421DD003F02000F8
:1049900068B16648008865494988884214DA6348E6
:1049A0000588408861490880084645800CE05F48DA
:1049B00000885E494988884206DD5C480588408851
:1049C0005A490880084645805848808845F2105169
:1049D000884254D15549488900F0F4FA002000F08B
:1049E000EBFA5249498900E078E0491C88B200F0AE
:1049F000E9FA002000F0E0FA4C494989891C88B2A4
:104A000000F0E0FA49490988491EC1F30F2000F07F
:104A1000D3FA46494989C91C88B200F0D3FA434900
:104A20000978491EC8B200F0C7FA4049888900F0E9
:104A3000C9FA002000F0C0FA3C498989491C88B2B3
:104A400000F0C0FA002000F0B7FA38498989891CC3
:104A500088B200F0B7FA35494988491EC1F30F20E2
:104A600000F0AAFA31498989C91C88B200F0AAFA73
:104A70002E498978491EC8B200F09EFA55E02B49AC
:104A8000488900F09FFA002000F096FA002000F01C
:104A900093FA26490988491EC1F30F2000F08CFAC9
:104AA00022490978491EC8B200F086FA1F49888950
:104AB00000F088FA002000F07FFA002000F07CFA75
:104AC0001A494988491EC1F30F2000F075FA1749A9
:104AD0008978491EC8B200F06FFA26E0082C1CD273
:104AE000DFE804F004070A0D0F12151843F0300335
:104AF00013E043F0100310E043F020030DE000BF8B
:104B00000BE043F0380308E043F0280305E043F0EE
:104B1000180302E043F0080300BF00BF032643F47C
:104B200080531946304600F05DFA70BD68020020DF
:104B300010B503460C466748808849F241318842E7
:104B400005D06448808845F21031884214D161490B
:104B5000488900F037FA181200F02EFAD8B200F0A7
:104B60002BFA5C49888900F02DFA201200F024FA13
:104B7000E0B200F021FAABE05648808846F6040126
:104B800088421DD153488079012804D151480088BA
:104B9000401EC01A83B24F49488900F013FA181218
:104BA00000F00AFAD8B200F007FA4A49888900F002
:104BB00009FA201200F000FAE0B200F0FDF987E0F7
:104BC0004448808841F66311884247D14148807942
:104BD000A8B940480088401EC01A83B23D494889A0
:104BE00000F0F0F9002000F0E7F9002000F0E4F90F
:104BF000181200F0E1F9D8B200F0DEF916E03549FC
:104C0000488900F0DFF9181200F0D6F9D8B200F0A8
:104C1000D3F930490988491EC1F30F2000F0CCF9BF
:104C20002C490978491EC8B200F0C6F9294988897B
:104C300000F0C8F9201200F0BFF9E0B200F0BCF9B2
:104C400024494988491EC1F30F2000F0B5F92149D4
:104C50008978491EC8B200F0AFF939E01D48808854
:104C600045F21051884220D11A49488900F0AAF92A
:104C7000181200F0A1F917494989491C88B200F0BF
:104C8000A1F9D8B200F098F91249888900F09AF990
:104C9000201200F091F90F498989491C88B200F06F
:104CA00091F9E0B200F088F912E00A488079012811
:104CB00004D108480088401EC01A83B205494889BB
:104CC000194600F08FF903498889214600F08AF9D6
:104CD00010BD0000680200202DE9F84F80460E4606
:104CE00017461C46B3462046E31704EB5373DB100C
:104CF00021464FEAE47C04EB5C7C4FEAEC0CA4EB2D
:104D0000CC0CBCF1000F02D04FF0010C01E04FF0D1
:104D1000000C6344224604EBD27C4FEA6C0C03FB8C
:104D20000CF3DBB20093A7F12000C7B2002556E0D8
:104D30000C2C07D107EB47002B4901EB800010F842
:104D4000059013E0102C05D1284800EB071010F84F
:104D500005900BE0182C07D107EBC700244901EBA5
:104D6000800010F8059001E0BDE8F88F4FF0000AD0
:104D70002FE009F0800030B11E48028831464046DD
:104D8000FBF75AFF07E00A9828B91B48028831460A
:104D90004046FBF751FF4FEA49604FEA1069701C2B
:104DA00086B216484088B04200DCDDE7A6EB0B0077
:104DB000A0420AD15E4608F101001FFA80F80F48B0
:104DC0000088404500DCCFE706E00AF1010000F072
:104DD000FF0ABAF1080FCCDB00BF681CC5B200980F
:104DE0008542A5DB00BFBFE7DA7200084E770008F6
:104DF0003E7D000810000020120000206802002004
:104E00002DE9FF4F81B0074691461E460E9D4FF09B
:104E1000000A002439E0301B401EC1B20A20FFF70F
:104E20000FFCB9FBF0F00A21B0FBF1F201FB120814
:104E3000BAF1000F16D1701EA04213DDB8F1000FB9
:104E40000ED10020AB4605EBDB71491001FB04716C
:104E5000009088B22B4620220299FFF73DFF12E016
:104E60004FF0010A0020AB4605EBDB71491001FB56
:104E70000471009088B208F13001CAB22B46029941
:104E8000FFF72AFF00BF601CC4B2B442C3DB05B009
:104E9000BDE8F08F2DE9F84704460D469046994647
:104EA000DDE9096704F0FF0A08EB04001FFA80F847
:104EB00009EB05001FFA80F916E0444502DB544671
:104EC000A81985B24D4500DB14E0002000903A7827
:104ED000334629462046FFF7FFFE304606EBD071E9
:104EE00004EB61018CB27F1C38787E2802DC3878B4
:104EF0002028E2DA00BFBDE8F8872DE9FF4F82B035
:104F0000064692461F46DDE90F4800200190002525
:104F10004DE0781B401EC1B20A20FFF791FBBAFB9F
:104F2000F0F00A21B0FBF1F201FB1209019850BB2D
:104F3000781EA84227DDB9F1000F22D108F08000C9
:104F400078B108F00100A34604EBDB71491001FBC6
:104F50000561009088B2234630220399FFF7BCFE1A
:104F60000EE008F00100A34604EBDB71491001FBE1
:104F70000561009088B2234620220399FFF7ACFE1A
:104F800013E00120019008F00100A34604EBDB715F
:104F9000491001FB0561009088B209F13001CAB2E5
:104FA00023460399FFF798FE00BF681CC5B2BD42B7
:104FB000AFDB06B0BDE8F08F014908807047000004
:104FC0000008006C0149088070470000FE07006C73
:104FD00002480089024908807047000068020020EA
:104FE000FE07006C024A1080921C1180704700007E
:104FF000FE07006C1848806940F008001649886177
:105000000846806940F0400088611448006820F438
:105010007000124908600846006840F440100860BB
:105020000E480C30006840F020000C490C3108603C
:105030000B48006820F470000949086008460068C1
:1050400040F44010086006480C30006840F0200032
:1050500003490C310860704700100240000C014009
:105060000018014000B5002015490861C8601420EF
:10507000486100208861C8610846006840F001006E
:105080000860084640680F4908400D4948600846D6
:1050900000680D4908400A4908600846006820F485
:1050A000802008600846406820F4FE004860002028
:1050B000886000214FF0006000F058F800BD00004B
:1050C000001002400000FFF8FFFFF6FE2DE9F0415E
:1050D0000746884614461D46284600F033F8C5F1B9
:1050E000040007FA00F60F20284100EA08000643F2
:1050F00006F00F06E21704EBD2625211920002F1A1
:10510000E022D2F800212146E31704EBD3635B11C0
:10511000A4EB431C012303FA0CF31A432046E317C4
:1051200004EBD3635B119B0003F1E023C3F8002180
:105130000348005D40EA061001490855BDE8F081CA
:1051400000E400E00146072323EA01021202054BB6
:1051500018684FF6FF031840034B18431043014BE8
:10516000186070470CED00E00000FA05024A0A40A2
:105170000243024B1A60704780FFFF1F08ED00E0FA
:1051800070B50026002400253A4806883604001D24
:10519000008806443848B6FBF0F438480088A0423E
:1051A0003AD036490C8040F2B2750EE02846FBF743
:1051B0002FFB30B1B4F5B77F02D3A4F5B77402E08A
:1051C00006E0A4F26D14681C85B2B4F5B67FEDD884
:1051D00000BF2B488580002516E029498888FBF709
:1051E00017FB30B1012D04D11D2C01D31D3C09E06A
:1051F0000CE02448405DA04203D82248405D241AB8
:1052000000E003E0681C85B21C2CE6D200BF681CDD
:105210001B498871601CC8711748B6FBF0F100FB90
:1052200011644FF46160B4FBF0F0154908704FF45D
:105230006160B4FBF0F100FB11403C21B0FBF1F0E8
:105240000F4948704FF46160B4FBF0F100FB11406E
:105250003C21B0FBF1F201FB1200094988700B46BA
:10526000DA799979988800F00FF8054908720020DA
:1052700070BD00001828004080510100140000207B
:1052800076020020A68A0008F0B503460C461546B3
:10529000642093FBF0F0C6B2642093FBF0F700FBB0
:1052A0001730C1B2132E02DD01F16400C1B208460D
:1052B000CF1701EB977701EBA707BAB2072092FB54
:1052C000F0F700FB172082B25719601EDFF82CC0E0
:1052D0001CF80000384482B2CF1701EB9777BF105B
:1052E000A1EB87071FB9032C01DA501E82B20720F9
:1052F00092FBF0F700FB1720C0B2F0BD9A8A0008BD
:105300000EB51948008800F0010008B1FFF738FF1A
:105310001548008800F00200B8B11348008820F05A
:10532000020011490880FFF72BFF104880780F49D1
:1053300049780E4A1278CDE9002102900B48C379D2
:10534000827981880AA0FAF78DFF0748008840F625
:10535000FA7108400449088000BF0348008800F043
:1053600020000028F9D00EBD04280040760200205D
:10537000416C61726D2054696D653A25642D256418
:105380002D25642025643A25643A25640A0000002E
:1053900030B504460025FFF765FE1F48006840F45D
:1053A00080301D49086000BF1B480068400C002881
:1053B000FAD04FF4806018494860A01EC4B2084675
:1053C000406840EA844048600846406840F48030C5
:1053D00048601248006840F03200104908600E48EA
:1053E000006840F080700C49086000BF0A480068FF
:1053F000400E0028FAD00848406840F002000649F4
:10540000486005E004484068C0F3870505F00305DF
:10541000022DF7D130BD00000010024000200240F4
:1054200010B50448C06840F4FE700249C86000F03E
:1054300003F810BD0010024000B50F48006840F0AE
:1054400004000D4908600D48C06940F080500B49C8
:10545000C8610B48406840F48070094948600846BC
:10546000006840F0040008600846006840F0020050
:10547000086000F009F900BD10ED00E000100240E6
:10548000007000400948008800F0010038B1084869
:10549000006808B9012000E00020054908600348C1
:1054A000008820F001000149088070471004004086
:1054B0009401234210B50C48008800F0010058B157
:1054C0000A490869804700200749143108804FF4D1
:1054D0007A7005491C3108800348008820F00100DB
:1054E0000149088010BD000010080040AC000020F9
:1054F0002D4908882D49097801F0800100294ED1F5
:1055000000F00101D1B12949097801F04001A9B1A8
:105510002649097801F03F013F290AD1234909783A
:1055200041F08001214A11704FF6FF71204A11802D
:1055300004E01E490978491C1C4A117000F0020160
:1055400069B31A49097801F0400199B117490978FE
:1055500041F08001154A1170134924310988144A19
:10556000118011491031098821F002010E4A1032D0
:10557000118014E000210D4A11700D4A11800B4971
:10558000097841F04001094A11700021064A14329D
:105590001180111F098841F00201121F11800021A2
:1055A000014A118070470000100C00400C000020E0
:1055B0000E00002070B505460C461048C06940F04A
:1055C00004000E49C8610E480580001F04800C4885
:1055D0002038008840F00100094920390880084837
:1055E0002C38008840F0010005492C39088002233E
:1055F0001E2203210846FFF769FD70BD001002401E
:105600002C0800401D49098801F0200111B31B49F5
:10561000091D0988C8B21A49098801F40041C9B9AD
:105620001749098801F4804161B10A2803D000219B
:10563000134A118020E01249098841F40041104AC0
:10564000118019E00D2806D10D49098841F48041E7
:105650000B4A118010E00A490988C1F30D01094A7B
:10566000505407490988491C054A11801146098888
:10567000C72901DD0021118070470000003801407A
:1056800008000020A001002030BF704710B511486D
:10569000806940F004000F4988610F48006820F0DD
:1056A0000F000D4908600846006840F008000860D7
:1056B000022200210846FBF75BF8FBF72DF808B93A
:1056C000FFF7BAFE0223062219461846FFF7FEFC32
:1056D00010BD0000001002400008014000B508485D
:1056E000007800F013F800200649086006480068BA
:1056F00008B9012000E000200349086000BD000057
:105700000A000020082C00409401234200F07F0191
:10571000014A116070470000002C004030380A2810
:1057200001D20120704700207047014600BF70473A
:105730004FF0E021096921F004014FF0E0221161EE
:10574000C21700EB5272C2F3C702074B1A70194618
:10575000097801EB4102C2EBC1114FF6FF7202EA78
:10576000C101024A118070470000002002000020A1
:1057700001460D4A12884A434FF0E0235A61002245
:105780009A6101221A6100BF4FF0E022106900F017
:1057900001021AB100F48032002AF5D000224FF045
:1057A000E0231A619A6170470200002001460D4A09
:1057B00012784A434FF0E0235A6100229A61012295
:1057C0001A6100BF4FF0E022106900F001021AB127
:1057D00000F48032002AF5D000224FF0E0231A6155
:1057E0009A6170470000002000BF054A128802F04D
:1057F0004002002AF9D0C2B2014B1B1D1A8070472B
:10580000003801401CB50920FFF7C2FD4FF4E1311B
:10581000482000F06DF84820FFF78AFFFFF7EAFB09
:10582000FFF734FFFBF724FB4FF478401B49088057
:105830001BA010210B46C822CDE9001032211E20EA
:10584000FFF728FB1AA010210B46C822CDE9001053
:1058500046211E20FFF71EFB18A010210B46C82270
:10586000CDE900105A211E20FFF714FB17A01021CC
:105870000B46C822CDE900106E211E20FFF70AFB5F
:105880000AE01548006808B9012000E0002012492C
:105890000860FA20FFF76CFFF3E70000100000201B
:1058A000576172736869702053544D3332000000A1
:1058B000574B5550205445535400000041544F4D10
:1058C00040414C49454E54454B0000003230313583
:1058D0002F312F31340000009481214200BF01009C
:1058E000A0F10102D0B2FAD17047014608687047B2
:1058F0002DE9F05F05460E46300101F08FFB814631
:105900002E4905FB01F001F089FB8246494601F072
:10591000A3FA0746384601F061FB84B2204601F045
:105920007DFB8346394601F059FC82464FF08341A6
:1059300001F088FB814601F051FB80464FF6FF7075
:1059400000EA041404EB080084B21D48806940F0AA
:1059500004001B4988610846806940F480408861E2
:105960001848006820F47F601649086008460068FF
:1059700040F40B6008601248C06840F48040104951
:10598000C8600846C06820F48040C8600E480480A3
:10599000001D008842F20C0108430B49091D0880D4
:1059A0000846008840F020000880022325220321B9
:1059B0000846FFF78BFBBDE8F09F000040420F0058
:1059C00000100240040801400838014030B595B08D
:1059D000054613AB12AA09A9284600F03FFA04466F
:1059E00014B1204615B030BD0020149026E02249A5
:1059F00009689DF8502001EBC20113AB11AA486859
:105A000001A900F02BFA04460CB12046EAE709A9E7
:105A100001A800F0DDFC60B99DF844009DF8481035
:105A2000884201DD0220DDE79DF8500012498875AB
:105A30000AE09DF85000401CC0B214900E48007D52
:105A40009DF850108842D2DC00BF0B48007D9DF8C5
:105A50005010884201D10420C4E714A9284600F060
:105A6000DDFA04460CB12046BCE79DF8500002491F
:105A700048750020B6E70000AC0000202DE9F04199
:105A80009AB09C48847D007DA04202DC1AB0BDE83B
:105A9000F0819849096801EBC40106AB07AA486880
:105AA00008A900F0DBF908A993A0FAF7DBFB0026B0
:105AB00044E09048008B0121B1400840D8B1222138
:105AC0008FA0FAF7CFFB304600F02EFB8949243136
:105AD000471839468BA0FAF7C5FB222188A0FAF7B0
