:020000040800F2
:10000000F00800202D02000899540008E10B0008B8
:10001000955400080F090008735F000800000000F5
:10002000000000000000000000000000FD58000873
:10003000550900080000000061550008115A000829
:10004000855F000847020008470200087958000849
:100050004702000847020008570900084702000845
:10006000470200084702000847020008470200084C
:10007000470200084702000847020008470200083C
:10008000470200084702000847020008470200082C
:10009000470200084702000847020008470200081C
:1000A000470200084702000847020008470200080C
:1000B000470200089D5A0008CD5A00084702000870
:1000C00047020008470200084702000847020008EC
:1000D00047020008515D0008470200084702000877
:1000E00047020008470200084702000847020008CC
:1000F00047020008470200084702000847020008BC
:100100004702000847020008055B00084702000894
:10011000470200084702000847020008470200089B
:10012000470200084702000847020008470200088B
:1001300000F002F800F06BF80AA090E8000C82448E
:100140008344AAF10107DA4501D100F060F8AFF26B
:10015000090EBAE80F0013F0010F18BFFB1A43F0A5
:1001600001031847B88E0000D88E00000A444FF0F3
:10017000000C10F8013B13F0070408BF10F8014B06
:100180001D1108BF10F8015B641E05D010F8016B4B
:10019000641E01F8016BF9D113F0080F1EBF10F8AF
:1001A000014BAD1C0C1B09D16D1E58BF01F801CBD2
:1001B000FAD505E014F8016B01F8016B6D1EF9D555
:1001C0009142D6D37047000000230024002500266A
:1001D000103A28BF78C1FBD8520728BF30C148BFAA
:1001E0000B607047642900F09F80752900F09C80A7
:1001F000782900F0D580632900F02982732900F066
:100200002E82002070471FB51FBD10B510BD00F035
:1002100059FA1146FFF7F7FF05F048FF00F077FAAB
:1002200003B4FFF7F2FF03BC05F0C1FE09488047A5
:1002300009480047FEE7FEE7FEE7FEE7FEE7FEE7C8
:10024000FEE7FEE7FEE7FEE704480549054A064BE0
:10025000704700003D5A000831010008F0020020FC
:10026000F0080020F0040020F00400207047000097
:100270000FB4044910B503AA029800F0F5F910BCB8
:100280005DF814FB1800002070B50446856900680D
:10029000C10601D5302600E02026C00707D070BD7A
:1002A000D4E9012130469047206A401C20626D1E2F
:1002B000F6D570BD70B5044685690078C00707D1D2
:1002C00070BDD4E9012120209047206A401C2062A3
:1002D0006D1EF6D570BD70B50C460546012A05D0D9
:1002E0002878800600D5EA69002302E0012305E0B2
:1002F0005B1C934202D2E05C0028F9D1A869E618A1
:10030000C01AA861286A184428622846FFF7BCFF73
:1003100004E0D5E9012114F8010B9047B442F8D369
:100320002846FFF7C7FF70BD2DE9F04106460024BF
:1003300010687529314616A510D0AFF3008000284B
:1003400002DA404213A507E031688A0701D512A5F9
:1003500002E0490704D511A5012401E0AFF30080B4
:1003600000210A2206F1240709E0B0FBF2FCB0FBF1
:10037000F2F302FB1C00303078541846491C002868
:10038000F3D123462A463046BDE8F04100F0FCB8E0
:10039000000000002D0000002B00000020000000E5
:1003A00070B504460D4621461068AFF300802188E1
:1003B000090502D50F4A7A4402E00E4A7A440E3209
:1003C000002104F1240305E000F00F060009965D0A
:1003D0005E54491C0028F7D120780023000704D57B
:1003E000702D02D009B1022311322046BDE87040C1
:1003F00000F0CAB8068A00002DE9F05F894604467D
:100400004FF0000ADFF874B1FB44C0F820A020468A
:10041000E1688847002874D0252806D0D4E9012156
:100420009047206A401C2062F1E700265F46204684
:10043000E16888472028054607DB312D05D2781969
:1004400010F8200C08B10643F1E7B00701D526F0FB
:100450000406C4F81CA00027C4F818A02A2D09D04F
:10046000284605F09DFD38B304EB8708303DC8F8F9
:10047000185019E059F8041B204604EB87029161DB
:10048000E1688847012F054618D1E069002820DA85
:1004900026F020061DE0D8F8180000EB800005EBE0
:1004A00040003038C8F818002046E1688847054603
:1004B00005F076FD0028EED1012F0AD02E2D08D1AF
:1004C0002046E16888477F1C0546022F46F020063B
:1004D000C4DBA069002803DA404246F00106A061AF
:1004E000F00701D026F010066C2D0BD0682D09D036
:1004F0004C2D39D06A2D35D0742D35D07A2D33D08E
:1005000016E038E0E1682F4620468847B8420546A5
:1005100009D16C2F26D04FF48060E1680643204655
:100520008847054604E06C2F1AD04FF480700643CC
:100530000DB3A5F14100192802D8203546F4006614
:100540004A462946204626604E46FFF74BFE80B1BC
:1005500001280BD0F61D26F0070000F1080956E728
:100560004020E4E78020D8E70020D6E706F1040920
:100570004DE7284652E7206ABDE8F09FDC8900007D
:1005800070477047704770472DE9F0470D46994610
:100590009246044600F124080168880604D5E06903
:1005A00021F01001216000E00120A84201DD471B7D
:1005B00000E00027A1697A1902EB0900081AA0617E
:1005C0002078C00602D42046FFF75EFE002608E031
:1005D000D4E901211AF806009047206A401C761CD5
:1005E00020624E45F4DB2078C0060AD52046FFF78E
:1005F0004BFE06E0D4E9012130209047206A401CE0
:100600002062381EA7F10107F4DC07E0D4E90121DC
:1006100018F805009047206A401C2062281EA5F1AA
:100620000105F3DC2046FFF745FE2078000602D5E1
:100630000220BDE8F0870120FBE710B5436913B144
:10064000AFF3008001E0FFF746FE012010BD1278F5
:1006500000F124010A7000224A700122EDE71168BE
:100660004FF0FF32E9E70000074B70B50D467B44C1
:1006700000F011F80446284600F020F810B14FF0C1
:10068000FF3070BD204670BD1F5A000001694A1C32
:1006900002610878704700B58FB0CDE901310021C3
:1006A000059105497944CDE9031011466846FFF7E5
:1006B000A3FE0FB000BD0000E5FFFFFF007B00F0D0
:1006C00080007047754600F029F8AE46050069467F
:1006D000534620F00700854618B020B5FFF7B4FD5B
:1006E000BDE820404FF000064FF000074FF0000833
:1006F0004FF0000B21F00701AC46ACE8C009ACE8B4
:10070000C009ACE8C009ACE8C0098D467047044692
:10071000AFF300802046FFF783FD000000487047DC
:100720008C02002021B1826842F00102826003E065
:10073000826822F0010282607047000010B5044612
:100740001248844208D10121401504F03BFF0021EA
:10075000601504F037FF17E00D48844208D10121ED
:10076000001504F02FFF0021201504F02BFF0BE0F3
:100770000848844208D10121C80304F023FF002166
:100780004FF4004004F01EFF10BD000000240140A3
:1007900000280140003C0140014600208A6802F028
:1007A00004020AB1012000E0002070470146C86C35
:1007B00080B270470246002013680B400BB1012045
:1007C00000E000207047014600208A6802F008021D
:1007D0000AB1012000E000207047000030B5024659
:1007E0000020002350680F4C20400D790C6844EA2B
:1007F00005242043506090680B4C2040D1E90254FE
:100800002C434D7944EA450420439060D06A20F49B
:1008100070000C7C641EE4B2234340EA0350D062B3
:1008200030BD0000FFFEF0FFFDF7F1FFF0B504461C
:100830000D4600200021092D11DDE068A5F10A0612
:1008400006EB4607072606FA07F18843A5F10A06D4
:1008500006EB460603FA06F10843E0600CE0206967
:1008600005EB4507072606FA07F1884305EB450621
:1008700003FA06F108432061072A0FDA606B561E5F
:1008800006EB86071F2606FA07F18843561E06EB7D
:10089000860605FA06F10843606322E00D2A0FDAA6
:1008A000206BD61F06EB86071F2606FA07F1884342
:1008B000D61F06EB860605FA06F10843206310E012
:1008C000E06AA2F10D0606EB86071F2606FA07F17D
:1008D0008843A2F10D0606EB860605FA06F10843E9
:1008E000E062F0BD816841F008018160704721B18C
:1008F000826842F4A002826003E0826822F4A002CF
:1009000082607047816841F004018160704700BFD8
:10091000FEE7000010B5002400200C49086013E039
:100920000B48006858B1601CC4B21E2005F064FB7F
:10093000642C09DB002005490860012010BD01205E
:10094000024908600020F9E7EAE7000094812142AB
:1009500000012142704710B5012000F007F8FFF7B1
:10096000D9FF08B105F055F810BD00000149086035
:10097000704700001404014051B18200A2F1C0424E
:10098000126842F001038200A2F1C042136009E044
:100990008200A2F1C0421268034B1A408300A3F107
:1009A000C0431A6070470000FEFF0F00D0E901123B
:1009B0001143C268114302691143426911438269BC
:1009C0001143C2691143026A1143426A1143826AA8
:1009D0001143C26A1143026B114302689200A2F1F3
:1009E000C0421160816808290BD101688900A1F11A
:1009F000C041096841F0400201688900A1F1C0418D
:100A00000A60416B0968426B526841EA0211426B0D
:100A1000926841EA0221426B928941EA0241426BAB
:100A2000128A41EA0251426B127D41EA0261426B35
:100A3000926911430268521C9200A2F1C0421160F7
:100A4000C16AB1F5804F1BD1816B0968826B526816
:100A500041EA0211826B926841EA0221826B128A9A
:100A600041EA0251826B127D41EA0261826B926916
:100A7000114302689200A2F1C042C2F8041107E0DB
:100A80006FF0704201688900A1F1C041C1F80421F2
:100A900070472DE9F0410246002500260020002382
:100AA0000024002791F803C00CF00F0591F803C053
:100AB0000CF0100CBCF1000F03D091F802C04CEA0E
:100AC000050591F800C0BCF1000F31D0146800207A
:100AD0002BE04FF0010C0CFA00F3B1F800C00CEA67
:100AE00003069E4220D183004FF00F0C0CFA03F74F
:100AF000BC4305FA03FC4CEA040491F803C0BCF1C2
:100B0000280F06D14FF0010C0CFA00FCC2F814C0FB
:100B10000AE091F803C0BCF1480F05D14FF0010C79
:100B20000CFA00FCC2F810C0401C0828D1D3146095
:100B3000B1F800C0BCF1FF0F34DD546800202EE096
:100B400000F1080C4FF0010808FA0CF3B1F800C0EE
:100B50000CEA03069E4221D183004FF00F0C0CFAE1
:100B600003F7BC4305FA03FC4CEA040491F803C004
:100B7000BCF1280F05D100F1080C08FA0CF8C2F8F6
:100B8000148091F803C0BCF1480F07D100F1080CA4
:100B90004FF0010808FA0CF8C2F81080401C082831
:100BA000CED35460BDE8F0810161704710B50446B2
:100BB0000723012221460948FFF738FE0121074893
:100BC000FFF795FE00BF02210448FFF7F3FD002860
:100BD000F9D00248FFF7EAFD10BD0000003C0140DB
:100BE00000BFFEE70146CA1701EB92729210A1EB1B
:100BF000820292B9642091FBF0F200FB121050B90E
:100C00004FF4C87091FBF0F200FB121008B90120FC
:100C100070470020FCE70120FAE70020F8E730B534
:100C2000014601F01F04C1F34513CA0AE50205EBB2
:100C300043151544A8B230BD70B5044600261748C8
:100C40000588408845431548808846F60401884257
:100C500016D112488079012812D100200F498871DD
:100C60002A2048812B2088810021084604F01CF9A5
:100C700001200A4988712B2048812A20888103E0BD
:100C80000021084604F010F904F05EFB002602E0A3
:100C900003480480761CAE42FAD370BD7402002073
:100CA0000008006C10B50446002C66D16C498871B0
:100CB000F02008804FF4A07048800846808849F2F0
:100CC000413188420BD06648808846F6040188424C
:100CD00005D06348808845F2103188421AD12C2013
:100CE0005F4908812A2048812B2088810846808816
:100CF00046F60401884205D05948808845F21031F3
:100D0000884206D14FF4A070554908804FF4F07026
:100D10004880A1E05248808845F21051884210D1A5
:100D20004FF430504E4908814FF4285048814FF419
:100D30002C5088814FF4F07008804FF44870488040
:100D40008AE04748808841F6631188420DD12C2003
:100D5000434908812B2048812A2088814FF4F07074
:100D600008804FF44870488076E022203C49088192
:100D700020204881212088816EE001203849887137
:100D80004FF4A0700880F02048800846808849F21F
:100D90004131884205D03248808845F2103188427E
:100DA00007D12C202E4908812A2048812B208881B8
:100DB0003FE02B48808846F60401884207D12C206A
:100DC000274908812B2048812A20888131E0244846
:100DD000808845F21051884210D14FF4305020499C
:100DE00008814FF4285048814FF42C5088814FF4EB
:100DF000487008804FF4F07048801AE018488088E6
:100E000041F6631188420DD12C20154908812A2012
:100E100048812B2088814FF4487008804FF4F0708F
:100E2000488006E022200E490881212048812020A8
:100E300088810B48808846F60401884205D008481E
:100E4000808845F21031884206D14FF4F070044991
:100E500008804FF4A0704880002003F0AFFE10BD62
:100E6000740200202DE9FF4F84B081468A4600209D
:100E7000039002900698A0EB09050798A0EB0A06DC
:100E8000CDF80490CDF800A0002D01DD012705E08C
:100E90000DB9002702E04FF0FF376D42002E02DD52
:100EA0004FF0010806E016B94FF0000802E04FF0DD
:100EB000FF387642B54201DD2C4600E034464FF063
:100EC000000B21E0009A91B2019A90B200F022F852
:100ED0000398284403900298304402900398A0425B
:100EE00005DD0398001B0390019838440190029897
:100EF000A04205DD0298001B02900098404400903B
:100F00000BF101001FFA80FB601C8345DADD08B09D
:100F1000BDE8F08F30B504460D462946204603F063
:100F2000C3FF04F011FA024800880249088030BD6E
:100F3000360000200008006CF0B504460D46164649
:100F40001F462B46324629462046FFF78BFF3B467D
:100F5000224629462046FFF785FF3B463246394662
:100F60002046FFF77FFF3B46324629463046FFF7D3
:100F700079FFF0BD2DE9F04306460F469046002468
:100F800045460320A0EB48093CE07A1B91B2321998
:100F900090B2FFF7BFFF3A1B91B2721990B2FFF700
:100FA000B9FF3A1991B2721990B2FFF7B3FF7A19EB
:100FB00091B2321990B2FFF7ADFF7A1991B2321B9C
:100FC00090B2FFF7A7FF3A1991B2721B90B2FFF7E8
:100FD000A1FF7A1B91B2321B90B2FFF79BFF3A1B25
:100FE00091B2721B90B2FFF795FF641CB9F1000F2C
:100FF00003DAA000801D814404E0601B80000A30F9
:1010000081446D1EAC42C0DDBDE8F08330B50346BF
:101010000C4615465A48808849F24131884205D02D
:101020005748808845F21031884214D15449488984
:1010300004F084F9181204F07BF9D8B204F078F9BE
:101040004F49888904F07AF9201204F071F9E0B26E
:1010500004F06EF98CE04A48808845F210518842CD
:1010600020D14749488904F069F9181204F060F961
:1010700043494989491C88B204F060F9D8B204F0A8
:1010800057F93F49888904F059F9201204F050F9C2
:101090003B498989491C88B204F050F9E0B204F058
:1010A00047F965E03648808841F66311884228D1C7
:1010B0003348807920B932480088401EC01A83B274
:1010C0002F49488904F03AF9181204F031F9D8B2DE
:1010D00004F02EF9181204F02BF9D8B204F028F914
:1010E0002749888904F02AF9201204F021F9E0B296
:1010F00004F01EF9201204F01BF9E0B204F018F914
:1011000036E01F48808846F6040188421DD11C48FD
:101110008079012804D11A480088401EC01A83B281
:101120001749488904F00AF9181204F001F9D8B2F5
:1011300004F0FEF81249888904F000F9201204F046
:10114000F7F8E0B204F0F4F812E00D4880790128D5
:1011500004D10B480088401EC01A83B20849488950
:10116000194604F0FBF806498889214604F0F6F890
:101170000348008903490880881C058030BD0000B1
:1011800074020020FE07006C2DE9FC4F05460E4658
:1011900017469846DDF82C9000200190274880885B
:1011A00046F60401884229D124488079012825D1B6
:1011B000AB46354621480088C01B401E86B24746D4
:1011C0001E480088A0EB0B00401E1FFA80F800208C
:1011D0001A4988712A2048812B20888143463A4643
:1011E00031462846CDF80090FFF7CEFF0120134985
:1011F00088712B2048812A2088811CE0781B401CA4
:1012000080B20190344614E02146284603F04CFE9B
:1012100004F09AF84FF0000A06E00948A0F80090A0
:101220000AF101001FFA80FA01988245F5DB601C83
:1012300084B24445E8DDBDE8FC8F00007402002064
:101240000008006C00B59FB00121080204F08AF983
:1012500001214FF4B47004F0A5F90120ADF8780035
:1012600010208DF87B0003208DF87A001EA9FE481F
:10127000FFF70FFC4CF23370ADF8780018208DF8B2
:101280007B0003208DF87A001EA9F848FFF701FCC7
:101290004FF68070ADF8780018208DF87B000320A1
:1012A0008DF87A001EA9F248FFF7F3FB41F2010026
:1012B000ADF8780018208DF87B0003208DF87A00B7
:1012C0001EA9EC48FFF7E5FB0120089000200990DB
:1012D0000F200A9000200B900C900D900E90019022
:1012E0000290032003900020049005900690079040
:1012F00006200F90002010901190102012900020D6
:10130000139015901490169017904FF480501890E9
:10131000002019904FF480401A9000201B9008A8DC
:101320001C9001A81D900FA8FFF740FB012106208B
:10133000FFF722FB322004F05FFE002003F008FCE0
:10134000CD49888008468088FF280ADB08468088C7
:101350004FF6FF71884204D0C7488088B0F5134F1C
:101360007ED1D32003F0EAFF03F032FBC24988802C
:1013700003F02EFBC049888003F02AFBBE49888019
:10138000084680884FF6FF7101EA0020BA4988803C
:1013900003F01EFBB84989880843B749888008468E
:1013A000808849F2413188425AD0BF2003F0C6FFFD
:1013B00003F00EFBB049888003F00AFBAE49888039
:1013C00003F006FBAC49888003F002FBAA49888041
:1013D000084680884FF6FF7101EA0020A649888000
:1013E00003F0F6FAA44989880843A349888008468F
:1013F000808846F6040188427AD0D42003F09EFF0C
:1014000003F0E6FA9C49888003F0E2FA9A49888062
:1014100003F0DEFA98498880084680884FF6FF710D
:1014200001EA00209449888003F0D2FA9249898821
:101430000843914988800846808845F210318842E7
:1014400056D04FF45A4003F079FF03F0C1FA8A49AD
:1014500088804FF45B4003F071FF03F0B9FA00E0BD
:1014600046E085498880084680884FF6FF7101EA8A
:101470000020814988804FF45C4003F05FFF03F057
:10148000A7FA7D49898808437B4988800846808877
:10149000B0F5004F02D145F2105088807648808820
:1014A00045F21051884223D0A12003F047FF03F0FA
:1014B0008FFA7149888003F08BFA6F49888008465B
:1014C00080884FF6FF7101EA00206B49888003F0A5
:1014D0007FFA694989880843674988800846808877
:1014E00045F26171884203D141F6631062498880F8
:1014F0006148818861A0FEF7BBFE5F48808849F2A1
:10150000413188427ED1CF2003F018FF002003F044
:101510000FFFC12003F00CFF302003F009FFED2086
:1015200003F00CFF642003F003FF032003F000FF2F
:10153000122003F0FDFE812003F0FAFEE82003F004
:10154000FDFE852003F0F4FE102003F0F1FE7A206A
:1015500003F0EEFECB2003F0F1FE392003F0E8FEAD
:101560002C2003F0E5FE002003F0E2FE342003F01F
:10157000DFFE022003F0DCFEF72003F0DFFE202078
:1015800003F0D6FEEA2003F0D9FE002003F0D0FEDF
:10159000002003F0CDFEC02003F0D0FE1B2003F09E
:1015A000C7FEC12003F0CAFE012003F0C1FEC52022
:1015B00003F0C4FE302003F0BBFE302003F0B8FE81
:1015C000C72003F0BBFEB72003F0B2FE362003F0C5
:1015D000B5FE482003F0ACFE3A2003F0AFFE5520E4
:1015E00003F0A6FEB12003F0A9FE002003F0A0FE48
:1015F0001A2003F09DFEB62003F0A0FE0A2003F09F
:1016000097FE00E0AAE0A22003F092FEF22003F091
:1016100095FE002003F08CFE262003F08FFE0120B3
:1016200003F086FEE02003F089FE0F2003F080FE29
:101630002A2003F07DFE282003F07AFE082003F024
:1016400077FE0E2003F074FE082003F071FE542094
:1016500003F06EFEA92003F06BFE432003F068FE4A
:101660000A2003F065FE11E0000C01400014014067
:10167000001801400020014074020020204C434427
:101680002049443A25780D0A000000000F2003F09D
:101690004FFE002003F04CFE002003F049FE002026
:1016A00003F046FE002003F043FEE12003F046FE77
:1016B000002003F03DFE152003F03AFE172003F052
:1016C00037FE072003F034FE112003F031FE062020
:1016D00003F02EFE2B2003F02BFE562003F028FEF5
:1016E0003C2003F025FE052003F022FE102003F02D
:1016F0001FFE0F2003F01CFE3F2003F019FE3F20C9
:1017000003F016FE0F2003F013FE2B2003F016FE4D
:10171000002003F00DFE002003F00AFE012003F07C
:1017200007FE3F2003F004FE2A2003F007FE0020FE
:1017300003F0FEFD002003F0FBFD002003F0F8FDA8
:10174000EF2003F0F5FD112003F0F8FD782004F000
:1017500053FC292003F0F2FD03F01DB9FE488088F8
:1017600046F6040188427CD1112003F0E7FD1420E5
:1017700004F042FCD02003F0E1FD072003F0D8FD87
:10178000422003F0D5FD1D2003F0D2FDD12003F04F
:10179000D5FD002003F0CCFD1A2003F0C9FD09207F
:1017A00003F0C6FDD22003F0C9FD012003F0C0FD07
:1017B000222003F0BDFDC02003F0C0FD102003F087
:1017C000B7FD3B2003F0B4FD002003F0B1FD022083
:1017D00003F0AEFD112003F0ABFDC52003F0AEFD1C
:1017E000032003F0A5FDC82003F0A8FD002003F0AE
:1017F0009FFD252003F09CFD212003F099FD05208D
:1018000003F096FD002003F093FD0A2003F090FD05
:10181000652003F08DFD252003F08AFD772003F07D
:1018200087FD502003F084FD0F2003F081FD002090
:1018300003F07EFDF82003F081FD012003F078FD28
:10184000FE2003F07BFD002003F072FD022003F078
:101850006FFD202003F072FD362003F06FFD08209D
:1018600000E02CE003F064FD3A2003F067FD552012
:1018700003F05EFD2B2003F061FD002003F058FD16
:10188000002003F055FD012003F052FD3F2003F03E
:101890004FFD2A2003F052FD002003F049FD0020F7
:1018A00003F046FD012003F043FDDF2003F040FD7F
:1018B000782004F0A1FB292003F040FD4CE7A64866
:1018C000808845F21031884240F07C87ED2003F09B
:1018D00035FD012003F02CFDFE2003F029FDEE2054
:1018E00003F02CFDDE2003F023FD212003F020FD7A
:1018F000F12003F023FD012003F01AFDDF2003F0A7
:101900001DFD102003F014FDC42003F017FD8F20EF
:1019100003F00EFDC62003F011FD002003F008FDCA
:10192000E22003F005FDE22003F002FDE22003F0D7
:10193000FFFCBF2003F002FDAA2003F0F9FCB02059
:1019400003F0FCFC0D2003F0F3FC002003F0F0FC9E
:101950000D2003F0EDFC002003F0EAFC112003F061
:10196000E7FC002003F0E4FC192003F0E1FC002078
:1019700003F0DEFC212003F0DBFC002003F0D8FCA8
:101980002D2003F0D5FC002003F0D2FC3D2003F015
:10199000CFFC002003F0CCFC5D2003F0C9FC00204C
:1019A00003F0C6FC5D2003F0C3FC002003F0C0FC84
:1019B000B12003F0C3FC802003F0BAFC002003F048
:1019C000B7FC8B2003F0B4FC002003F0B1FC9620A0
:1019D00003F0AEFC002003F0ABFCB22003F0AEFC41
:1019E000002003F0A5FC002003F0A2FC022003F07D
:1019F0009FFC002003F09CFC032003F099FC0020D6
:101A000003F096FCB32003F099FC002003F090FC57
:101A1000002003F08DFC002003F08AFC002003F07E
:101A200087FC002003F084FC002003F081FC0020F0
:101A300003F07EFC002003F07BFC002003F078FC28
:101A4000002003F075FC002003F072FC002003F07E
:101A50006FFC002003F06CFC002003F069FC002008
:101A600003F066FC002003F063FC002003F060FC40
:101A7000002003F05DFC002003F05AFC002003F07E
:101A800057FC002003F054FC002003F051FC002020
:101A900003F04EFC002003F04BFCB42003F04EFC9E
:101AA0008B2003F045FC002003F042FC962003F05D
:101AB0003FFC002003F03CFCA12003F039FC002097
:101AC00003F036FCB52003F039FC022003F030FCB3
:101AD000002003F02DFC032003F02AFC002003F07B
:101AE00027FC042003F024FC002003F021FCB62096
:101AF00003F024FC002003F01BFC002003F018FC82
:101B0000B72003F01BFC002003F012FC002003F0C0
:101B10000FFC3F2003F00CFC002003F009FC5E20CA
:101B200003F006FC002003F003FC642003F000FC3B
:101B3000002003F0FDFB8C2003F0FAFB002003F0F3
:101B4000F7FBAC2003F0F4FB002003F0F1FBDC20FA
:101B500003F0EEFB002001E07402002003F0E8FB3C
:101B6000702003F0E5FB002003F0E2FB902003F07F
:101B7000DFFB002003F0DCFBEB2003F0D9FB0020AF
:101B800003F0D6FBDC2003F0D3FB002003F0D0FBF6
:101B9000B82003F0D3FB002003F0CAFB002003F0C1
:101BA000C7FB002003F0C4FB002003F0C1FB0020B2
:101BB00003F0BEFB002003F0BBFB002003F0B8FBEA
:101BC000002003F0B5FBBA2003F0B8FB242003F09B
:101BD000AFFB002003F0ACFB002003F0A9FB0020CA
:101BE00003F0A6FBC12003F0A9FB202003F0A0FB1B
:101BF000002003F09DFB542003F09AFB002003F02B
:101C000097FBFF2003F094FB002003F091FBC22020
:101C100003F094FB0A2003F08BFB002003F088FB09
:101C2000042003F085FB002003F082FBC32003F0B7
:101C300085FB3C2003F07CFB002003F079FB3A207D
:101C400003F076FB002003F073FB392003F070FBF8
:101C5000002003F06DFB372003F06AFB002003F047
:101C600067FB3C2003F064FB002003F061FB36209F
:101C700003F05EFB002003F05BFB322003F058FB17
:101C8000002003F055FB2F2003F052FB002003F04F
:101C90004FFB2C2003F04CFB002003F049FB2920D4
:101CA00003F046FB002003F043FB262003F040FB3B
:101CB000002003F03DFB242003F03AFB002003F05A
:101CC00037FB242003F034FB002003F031FB2320FA
:101CD00003F02EFB002003F02BFB3C2003F028FB3D
:101CE000002003F025FB362003F022FB002003F048
:101CF0001FFB322003F01CFB002003F019FB2F20F8
:101D000003F016FB002003F013FB2C2003F010FB64
:101D1000002003F00DFB292003F00AFB002003F054
:101D200007FB262003F004FB002003F001FB242026
:101D300003F0FEFA002003F0FBFA242003F0F8FA87
:101D4000002003F0F5FA232003F0F2FA002003F05C
:101D5000EFFAC42003F0F2FA622003F0E9FA00205F
:101D600003F0E6FA052003F0E3FA002003F0E0FABE
:101D7000842003F0DDFA002003F0DAFAF02003F00B
:101D8000D7FA002003F0D4FA182003F0D1FA00208B
:101D900003F0CEFAA42003F0CBFA002003F0C8FA37
:101DA000182003F0C5FA002003F0C2FA502003F017
:101DB000BFFA002003F0BCFA0C2003F0B9FA0020AF
:101DC00003F0B6FA172003F0B3FA002003F0B0FADC
:101DD000952003F0ADFA002003F0AAFAF32003F0F7
:101DE000A7FA002003F0A4FAE62003F0A1FA0020ED
:101DF00003F09EFAC52003F0A1FA322003F098FA0E
:101E0000002003F095FA442003F092FA002003F03A
:101E10008FFA652003F08CFA002003F089FA76200F
:101E200003F086FA002003F083FA882003F080FA9A
:101E3000002003F07DFAC62003F080FA202003F092
:101E400077FA002003F074FA172003F071FA0020EB
:101E500003F06EFA012003F06BFA002003F068FA39
:101E6000C72003F06BFA002003F062FA002003F0B1
:101E70005FFA002003F05CFA002003F059FAC82052
:101E800003F05CFA002003F053FA002003F050FA4C
:101E9000002003F04DFA002003F04AFAC92003F0B5
:101EA0004DFA002003F044FA002003F041FA00202C
:101EB00003F03EFA002003F03BFA002003F038FA6A
:101EC000002003F035FA002003F032FA002003F07E
:101ED0002FFA002003F02CFA002003F029FA00204A
:101EE00003F026FA002003F023FA002003F020FA82
:101EF000002003F01DFA002003F01AFA002003F07E
:101F000017FAE02003F01AFA162003F011FA002065
:101F100003F00EFA1C2003F00BFA002003F008FA7D
:101F2000212003F005FA002003F002FA362003F026
:101F3000FFF9002003F0FCF9462003F0F9F9002036
:101F400003F0F6F9522003F0F3F9002003F0F0F962
:101F5000642003F0EDF9002003F0EAF97A2003F0A1
:101F6000E7F9002003F0E4F98B2003F0E1F9002009
:101F700003F0DEF9992003F0DBF9002003F0D8F933
:101F8000A82003F0D5F9002003F0D2F9B92003F01E
:101F9000CFF9002003F0CCF9C42003F0C9F90020E8
:101FA00003F0C6F9CA2003F0C3F9002003F0C0F91A
:101FB000D22003F0BDF9002003F0BAF9D92003F0D4
:101FC000B7F9002003F0B4F9E02003F0B1F90020E4
:101FD00003F0AEF9F32003F0ABF9002003F0A8F909
:101FE000E12003F0ABF9162003F0A2F9002003F082
:101FF0009FF91C2003F09CF9002003F099F922209E
:1020000003F096F9002003F093F9362003F090F9DD
:10201000002003F08DF9452003F08AF9002003F039
:1020200087F9522003F084F9002003F081F964203D
:1020300003F07EF9002003F07BF97A2003F078F9B1
:10204000002003F075F98B2003F072F9002003F0F3
:102050006FF9992003F06CF9002003F069F9A820CA
:1020600003F066F9002003F063F9B92003F060F98A
:10207000002003F05DF9C42003F05AF9002003F0BA
:1020800057F9CA2003F054F9002003F051F9D22087
:1020900003F04EF9002003F04BF9D82003F048F983
:1020A000002003F045F9E02003F042F9002003F09E
:1020B0003FF9F32003F03CF9002003F039F9E22066
:1020C00003F03CF9052003F033F9002003F030F968
:1020D0000B2003F02DF9002003F02AF91B2003F058
:1020E00027F9002003F024F9342003F021F900201F
:1020F00003F01EF9442003F01BF9002003F018F947
:102100004F2003F015F9002003F012F9612003F0CD
:102110000FF9002003F00CF9792003F009F90020F1
:1021200003F006F9882003F003F9002003F000F91A
:10213000972003F0FDF8002003F0FAF8A62003F042
:10214000F7F8002003F0F4F8B72003F0F1F80020CE
:1021500003F0EEF8C22003F0EBF8002003F0E8F8FB
:10216000C72003F0E5F8002003F0E2F8D12003F0E7
:10217000DFF8002003F0DCF8D62003F0D9F80020C7
:1021800003F0D6F8DD2003F0D3F8002003F0D0F8F8
:10219000F32003F0CDF8002003F0CAF8E32003F0A9
:1021A000CDF8052003F0C4F8002003F0C1F80A20A0
:1021B00003F0BEF8002003F0BBF81C2003F0B8F8D1
:1021C000002003F0B5F8332003F0B2F8002003F04C
:1021D000AFF8442003F0ACF8002003F0A9F8502039
:1021E00003F0A6F8002003F0A3F8622003F0A0F8A3
:1021F000002003F09DF8782003F09AF8002003F007
:1022000097F8882003F094F8002003F091F89720C5
:1022100003F08EF8002003F08BF8A62003F088F876
:10222000002003F085F8B72003F082F8002003F0C7
:102230007FF8C22003F07CF8002003F079F8C72073
:1022400003F076F8002003F073F8D12003F070F863
:10225000002003F06DF8D52003F06AF8002003F0A9
:1022600067F8DD2003F064F8002003F061F8F32044
:1022700003F05EF8002003F05BF8E42003F05EF862
:10228000012003F055F8002003F052F8012003F07C
:102290004FF8002003F04CF8022003F049F800202A
:1022A00003F046F82A2003F043F8002003F040F83A
:1022B0003C2003F03DF8002003F03AF84B2003F0F7
:1022C00037F8002003F034F85D2003F031F80020E7
:1022D00003F02EF8742003F02BF8002003F028F808
:1022E000842003F025F8002003F022F8932003F067
:1022F0001FF8002003F01CF8A22003F019F80020BA
:1023000003F016F8B32003F013F8002003F010F8E0
:10231000BE2003F00DF8002003F00AF8C42003F0FB
:1023200007F8002003F004F8CD2003F001F80020A6
:1023300002F0FEFFD32002F0FBFF002002F0F8FFC6
:10234000DD2002F0F5FF002002F0F2FFF32002F0A2
:10235000EFFF002002F0ECFFE52002F0EFFF00208D
:1023600002F0E6FF002002F0E3FF002002F0E0FFB1
:10237000002002F0DDFF022002F0DAFF002002F070
:10238000D7FF292002F0D4FF002002F0D1FF3C202B
:1023900002F0CEFF002002F0CBFF4B2002F0C8FF7E
:1023A000002002F0C5FF5D2002F0C2FF002002F015
:1023B000BFFF742002F0BCFF002002F0B9FF8420B0
:1023C00002F0B6FF002002F0B3FF932002F0B0FF4E
:1023D000002002F0ADFFA22002F0AAFF002002F0D0
:1023E000A7FFB32002F0A4FF002002F0A1FFBE204F
:1023F00002F09EFF002002F09BFFC42002F098FF35
:10240000002002F095FFCD2002F092FF002002F0A4
:102410008FFFD32002F08CFF002002F089FFDC2028
:1024200002F086FF002002F083FFF32002F080FF1D
:10243000002002F07DFFE62002F080FF112002F074
:1024400077FF002002F074FF342002F071FF0020BB
:1024500002F06EFF562002F06BFF002002F068FFD2
:10246000762002F065FF002002F062FF772002F084
:102470005FFF002002F05CFF662002F059FF0020A1
:1024800002F056FF882002F053FF002002F050FFB8
:10249000992002F04DFF002002F04AFFBB2002F01D
:1024A00047FF002002F044FF992002F041FF002086
:1024B00002F03EFF662002F03BFF002002F038FFF2
:1024C000552002F035FF002002F032FF552002F0C7
:1024D0002FFF002002F02CFF452002F029FF0020F2
:1024E00002F026FF432002F023FF002002F020FF2D
:1024F000442002F01DFF002002F01AFFE72002F046
:102500001DFF322002F014FF002002F011FF5520C1
:1025100002F00EFF002002F00BFF762002F008FF11
:10252000002002F005FF662002F002FF002002F00A
:10253000FFFE672002F0FCFE002002F0F9FE67209B
:1025400002F0F6FE002002F0F3FE872002F0F0FE1B
:10255000002002F0EDFE992002F0EAFE002002F0D9
:10256000E7FEBB2002F0E4FE002002F0E1FE99202D
:1025700002F0DEFE002002F0DBFE772002F0D8FE43
:10258000002002F0D5FE442002F0D2FE002002F02E
:10259000CFFE562002F0CCFE002002F0C9FE232020
:1025A00002F0C6FE002002F0C3FE332002F0C0FE9F
:1025B000002002F0BDFE452002F0BAFE002002F02D
:1025C000B7FEE82002F0BAFE002002F0B1FE0020C3
:1025D00002F0AEFE992002F0ABFE002002F0A8FE51
:1025E000872002F0A5FE002002F0A2FE882002F063
:1025F0009FFE002002F09CFE772002F099FE002052
:1026000002F096FE662002F093FE002002F090FE9B
:10261000882002F08DFE002002F08AFEAA2002F03F
:1026200087FE002002F084FEBB2002F081FE002025
:1026300002F07EFE992002F07BFE002002F078FE80
:10264000662002F075FE002002F072FE552002F0B6
:102650006FFE002002F06CFE552002F069FE0020A3
:1026600002F066FE442002F063FE002002F060FEED
:10267000442002F05DFE002002F05AFE552002F0D8
:1026800057FE002002F054FEE92002F057FEAA2077
:1026900002F04EFE002002F04BFE002002F048FE49
:1026A000002002F045FE002002F048FEAA2002F0C1
:1026B0003FFECF2002F042FE002002F039FE002053
:1026C00002F036FE002002F033FE002002F030FE61
:1026D000002002F02DFE002002F02AFE002002F071
:1026E00027FE002002F024FE002002F021FE002040
:1026F00002F01EFE002002F01BFE002002F018FE79
:10270000002002F015FE002002F012FE002002F070
:102710000FFE002002F00CFE002002F009FEF02067
:1027200002F00CFE002002F003FE502002F000FE3A
:10273000002002F0FDFD002002F0FAFD002002F072
:10274000F7FDF32002F0FAFD002002F0F1FDF92080
:1027500002F0F4FD062002F0EBFD102002F0E8FD8F
:10276000292002F0E5FD002002F0E2FD3A2002F00F
:10277000E5FD552002F0DCFD112002F0DFFD6420B4
:1027800003F03AFC292002F0D9FD352002F0D6FDF5
:10279000002002F0CDFD512002F0D0FDFF2002F01C
:1027A000C7FD532002F0CAFD2C2002F0C1FD5520C8
:1027B00002F0C4FD822002F0BBFD2C2002F0BEFD21
:1027C00002F0E9B8FE48808845F2105188427DD178
:1027D00055214FF4704002F0C1FDAA214FF20100D3
:1027E00002F0BCFD52214FF2020002F0B7FD0821B9
:1027F0004FF2030002F0B2FD01214FF2040002F09B
:10280000ADFD0D214FF4304002F0A8FD0D214BF23B
:10281000010002F0A3FD0D214BF2020002F09EFD2B
:1028200034214FF4364002F099FD34214BF201601F
:1028300002F094FD34214BF2026002F08FFD0D2175
:102840004FF4314002F08AFD0D214BF2011002F0ED
:1028500085FD0D214BF2021002F080FD34214FF472
:10286000374002F07BFD34214BF2017002F076FD1F
:1028700034214BF2027002F071FD00214FF432401E
:1028800002F06CFD00214BF2012002F067FD0021F7
:102890004BF2022002F062FD24214FF4384002F096
:1028A0005DFD24214BF6010002F058FD24214BF67A
:1028B000020002F053FD01214FF43F4002F04EFDB3
:1028C0000F214FF4334002F049FD00E0FDE30F21FA
:1028D0004BF2013002F042FD0F214BF2023002F0C8
:1028E0003DFD34214FF4394002F038FD34214BF6E0
:1028F000011002F033FD34214BF6021002F02EFDE0
:1029000008214FF4354002F029FD08214BF2015017
:1029100002F024FD08214BF2025002F01FFD0321BA
:102920004FF4424002F01AFD24214FF43A4002F0E5
:1029300015FD24214BF6012002F010FD24214BF659
:10294000022002F00BFD00214FF43C4002F006FD96
:1029500078214BF6014002F001FD00214BF60240C8
:1029600002F0FCFC00214FF43D4002F0F7FC78211E
:102970004BF6015002F0F2FC00214BF6025002F03F
:10298000EDFC00214FF43E4002F0E8FC64214BF6E0
:10299000016002F0E3FC00214FF4514002F0DEFC44
:1029A00033214DF2011002F0D9FC00214DF202104A
:1029B00002F0D4FC34214DF2031002F0CFFC0021D0
:1029C0004DF2041002F0CAFC3A214DF2051002F05B
:1029D000C5FC00214DF2061002F0C0FC4A214DF268
:1029E000071002F0BBFC00214DF2081002F0B6FC0B
:1029F0005C214DF2091002F0B1FC00214DF20A10E9
:102A000002F0ACFC81214DF20B1002F0A7FC00217A
:102A10004DF20C1002F0A2FCA6214DF20D1002F0B6
:102A20009DFC00214DF20E1002F098FCE5214DF2C4
:102A30000F1002F093FC01214DF2101002F08EFCF9
:102A400013214DF2111002F089FC01214DF21210F8
:102A500002F084FC54214DF2131002F07FFC01219E
:102A60004DF2141002F07AFC82214DF2151002F0A2
:102A700075FC01214DF2161002F070FCCA214DF2D6
:102A8000171002F06BFC02214DF2181002F066FCE8
:102A900000214DF2191002F061FC02214DF21A10D2
:102AA00002F05CFC01214DF21B1002F057FC0221E8
:102AB0004DF21C1002F052FC34214DF21D1002F0B8
:102AC0004DFC02214DF21E1002F048FC67214DF230
:102AD0001F1002F043FC02214DF2201002F03EFCD8
:102AE00084214DF2211002F039FC02214DF2221016
:102AF00002F034FCA4214DF2231002F02FFC02213D
:102B00004DF2241002F02AFCB7214DF2251002F0FC
:102B100025FC02214DF2261002F020FCCF214DF2BF
:102B2000271002F01BFC02214DF2281002F016FCC7
:102B3000DE214DF2291002F011FC02214DF22A1083
:102B400002F00CFCF2214DF22B1002F007FC0221E6
:102B50004DF22C1002F002FCFE214DF22D1002F07D
:102B6000FDFB03214DF22E1002F0F8FB10214DF277
:102B70002F1002F0F3FB03214DF2301002F0EEFBB8
:102B800033214DF2311002F0E9FB03214DF23210F6
:102B900002F0E4FB6D214DF2331002F0DFFB002167
:102BA0004FF4524002F0DAFB33214DF2012002F0E3
:102BB000D5FB00214DF2022002F0D0FB342101E0D0
:102BC000740200204DF2032002F0C8FB00214DF2F8
:102BD000042002F0C3FB3A214DF2052002F0BEFBB7
:102BE00000214DF2062002F0B9FB4A214DF20720E8
:102BF00002F0B4FB00214DF2082002F0AFFB5C2193
:102C00004DF2092002F0AAFB00214DF20A2002F049
:102C1000A5FB81214DF20B2002F0A0FB00214DF21B
:102C20000C2002F09BFBA6214DF20D2002F096FB3A
:102C300000214DF20E2002F091FBE5214DF20F2014
:102C400002F08CFB01214DF2102002F087FB1321D2
:102C50004DF2112002F082FB01214DF2122002F010
:102C60007DFB54214DF2132002F078FB01214DF23F
:102C7000142002F073FB82214DF2152002F06EFB4E
:102C800001214DF2162002F069FBCA214DF21720F6
:102C900002F064FB02214DF2182002F05FFB0021DC
:102CA0004DF2192002F05AFB02214DF21A2002F0D7
:102CB00055FB01214DF21B2002F050FB02214DF289
:102CC0001C2002F04BFB34214DF21D2002F046FB8C
:102CD00002214DF21E2002F041FB67214DF21F2020
:102CE00002F03CFB02214DF2202002F037FB842150
:102CF0004DF2212002F032FB02214DF2222002F09F
:102D00002DFBA4214DF2232002F028FB02214DF2DD
:102D1000242002F023FBB7214DF2252002F01EFBF8
:102D200002214DF2262002F019FBCF214DF227207F
:102D300002F014FB02214DF2282002F00FFBDE21ED
:102D40004DF2292002F00AFB02214DF22A2002F066
:102D500005FBF2214DF22B2002F000FB02214DF287
:102D60002C2002F0FBFAFE214DF22D2002F0F6FAA3
:102D700003214DF22E2002F0F1FA10214DF22F2006
:102D800002F0ECFA03214DF2302002F0E7FA332191
:102D90004DF2312002F0E2FA03214DF2322002F02E
:102DA000DDFA6D214DF2332002F0D8FA00214FF404
:102DB000534002F0D3FA33214DF2013002F0CEFA43
:102DC00000214DF2023002F0C9FA34214DF20330F5
:102DD00002F0C4FA00214DF2043002F0BFFA3A21A9
:102DE0004DF2053002F0BAFA00214DF2063002F041
:102DF000B5FA4A214DF2073002F0B0FA00214DF247
:102E0000083002F0ABFA5C214DF2093002F0A6FA6C
:102E100000214DF20A3002F0A1FA81214DF20B306F
:102E200002F09CFA00214DF20C3002F097FAA62134
:102E30004DF20D3002F092FA00214DF20E3002F008
:102E40008DFAE5214DF20F3002F088FA01214DF2A2
:102E5000103002F083FA13214DF2113002F07EFAA5
:102E600001214DF2123002F079FA54214DF2133063
:102E700002F074FA01214DF2143002F06FFA82214F
:102E80004DF2153002F06AFA01214DF2163002F0CF
:102E900065FACA214DF2173002F060FA02214DF2B4
:102EA000183002F05BFA00214DF2193002F056FAA8
:102EB00002214DF21A3002F051FA01214DF21B307D
:102EC00002F04CFA02214DF21C3002F047FA342194
:102ED0004DF21D3002F042FA02214DF21E3002F096
:102EE0003DFA67214DF21F3002F038FA02214DF20F
:102EF000203002F033FA84214DF2213002F02EFA14
:102F000002214DF2223002F029FAA4214DF22330A1
:102F100002F024FA02214DF2243002F01FFAB72108
:102F20004DF2253002F01AFA02214DF2263002F05D
:102F300015FACF214DF2273002F010FA02214DF29E
:102F4000283002F00BFADE214DF2293002F006FAA9
:102F500002214DF22A3002F001FAF2214DF22B301B
:102F600002F0FCF902214DF22C3002F0F7F9FE21BB
:102F70004DF22D3002F0F2F903214DF22E3002F025
:102F8000EDF910214DF22F3002F0E8F903214DF256
:102F9000303002F0E3F933214DF2313002F0DEF946
:102FA00003214DF2323002F0D9F96D214DF2333068
:102FB00002F0D4F900214FF4544002F0CFF933214C
:102FC0004DF2014002F0CAF900214DF2024002F038
:102FD000C5F934214DF2034002F0C0F900214DF251
:102FE000044002F0BBF93A214DF2054002F0B6F977
:102FF00000214DF2064002F0B1F94A214DF207409E
:1030000002F0ACF900214DF2084002F0A7F95C2172
:103010004DF2094002F0A2F900214DF20A4002F0FF
:103020009DF981214DF20B4002F098F900214DF2FB
:103030000C4002F093F9A6214DF20D4002F08EF9FA
:1030400000214DF20E4002F089F9E5214DF20F40CA
:1030500002F084F901214DF2104002F07FF91321B2
:103060004DF2114002F07AF901214DF2124002F0C6
:1030700075F954214DF2134002F070F901214DF21F
:10308000144002F06BF982214DF2154002F066F90E
:1030900001214DF2164002F061F9CA214DF21740AC
:1030A00002F05CF902214DF2184002F057F90021BC
:1030B0004DF2194002F052F902214DF21A4002F08D
:1030C0004DF901214DF21B4000E006E302F046F904
:1030D00002214DF21C4002F041F934214DF21D4015
:1030E00002F03CF902214DF21E4002F037F967214F
:1030F0004DF21F4002F032F902214DF2204002F061
:103100002DF984214DF2214002F028F902214DF2DF
:10311000224002F023F9A4214DF2234002F01EF9CF
:1031200002214DF2244002F019F9B7214DF2254059
:1031300002F014F902214DF2264002F00FF9CF21DE
:103140004DF2274002F00AF902214DF2284002F028
:1031500005F9DE214DF2294002F000F902214DF27D
:103160002A4002F0FBF8F2214DF22B4002F0F6F873
:1031700002214DF22C4002F0F1F8FE214DF22D40DB
:1031800002F0ECF803214DF22E4002F0E7F8102196
:103190004DF22F4002F0E2F803214DF2304002F0F0
:1031A000DDF833214DF2314002F0D8F803214DF221
:1031B000324002F0D3F86D214DF2334002F0CEF8E8
:1031C00000214FF4554002F0C9F833214DF201506F
:1031D00002F0C4F800214DF2025002F0BFF8342191
:1031E0004DF2035002F0BAF800214DF2045002F003
:1031F000B5F83A214DF2055002F0B0F800214DF239
:10320000065002F0ABF84A214DF2075002F0A6F842
:1032100000214DF2085002F0A1F85C214DF2095056
:1032200002F09CF800214DF20A5002F097F881213B
:103230004DF20B5002F092F800214DF20C5002F0CA
:103240008DF8A6214DF20D5002F088F800214DF2C4
:103250000E5002F083F8E5214DF20F5002F07EF897
:1032600001214DF2105002F079F813214DF2115066
:1032700002F074F801214DF2125002F06FF854215F
:103280004DF2135002F06AF801214DF2145002F091
:1032900065F882214DF2155002F060F801214DF2DF
:1032A000165002F05BF8CA214DF2175002F056F8A2
:1032B00002214DF2185002F051F800214DF2195040
:1032C00002F04CF802214DF21A5002F047F80121A9
:1032D0004DF21B5002F042F802214DF21C5002F058
:1032E0003DF834214DF21D5002F038F802214DF224
:1032F0001E5002F033F867214DF21F5002F02EF8F5
:1033000002214DF2205002F029F884214DF2215083
:1033100002F024F802214DF2225002F01FF8A421FD
:103320004DF2235002F01AF802214DF2245002F01F
:1033300015F8B7214DF2255002F010F802214DF298
:10334000265002F00BF8CF214DF2275002F006F87C
:1033500002214DF2285002F001F8DE214DF22950F1
:1033600001F0FCFF02214DF22A5001F0F7FFF2219B
:103370004DF22B5001F0F2FF02214DF22C5001F0E2
:10338000EDFFFE214DF22D5001F0E8FF03214DF23B
:103390002E5001F0E3FF10214DF22F5001F0DEFF1F
:1033A00003214DF2305001F0D9FF33214DF231505D
:1033B00001F0D4FF03214DF2325001F0CFFF6D2117
:1033C0004DF2335001F0CAFF00214FF4564001F096
:1033D000C5FF33214DF2016001F0C0FF00214DF225
:1033E000026001F0BBFF34214DF2036001F0B6FF33
:1033F00000214DF2046001F0B1FF3A214DF2056069
:1034000001F0ACFF00214DF2066001F0A7FF4A2158
:103410004DF2076001F0A2FF00214DF2086001F0BB
:103420009DFF5C214DF2096001F098FF00214DF2F3
:103430000A6001F093FF81214DF20B6001F08EFFD5
:1034400000214DF20C6001F089FFA6214DF20D60C4
:1034500001F084FF00214DF20E6001F07FFFE521B5
:103460004DF20F6001F07AFF01214DF2106001F082
:1034700075FF13214DF2116001F070FF01214DF233
:10348000126001F06BFF54214DF2136001F066FFF2
:1034900001214DF2146001F061FF82214DF21560AF
:1034A00001F05CFF01214DF2166001F057FFCA21C7
:1034B0004DF2176001F052FF02214DF2186001F049
:1034C0004DFF00214DF2196001F048FF02214DF23D
:1034D0001A6001F043FF01214DF21B6001F03EFF35
:1034E00002214DF21C6001F039FF34214DF21D60C4
:1034F00001F034FF02214DF21E6001F02FFF672121
:103500004DF21F6001F02AFF02214DF2206001F010
:1035100025FF84214DF2216001F020FF02214DF2B0
:10352000226001F01BFFA4214DF2236001F016FF81
:1035300002214DF2246001F011FFB7214DF2256008
:1035400001F00CFF02214DF2266001F007FFCF21B0
:103550004DF2276001F002FF02214DF2286001F0D8
:10356000FDFEDE214DF2296001F0F8FE02214DF250
:103570002A6001F0F3FEF2214DF22B6001F0EEFE25
:1035800002214DF22C6001F0E9FEFE214DF22D608A
:1035900001F0E4FE03214DF22E6001F0DFFE102168
:1035A0004DF22F6001F0DAFE03214DF2306001F0A0
:1035B000D5FE33214DF2316001F0D0FE03214DF2F2
:1035C000326001F0CBFE6D214DF2336001F0C6FE9A
:1035D00055214FF4704001F0C1FEAA214FF20100C5
:1035E00001F0BCFE52214FF2020001F0B7FE0821AB
:1035F0004FF2030001F0B2FE00214FF2040001F08F
:10360000ADFECC214FF4314001F0A8FE00214BF279
:10361000011001F0A3FE05214FF4364001F09EFE9B
:1036200070214FF4374001F099FE70214BF2017088
:1036300001F094FE01214FF4384001F08FFE032188
:103640004BF6010001F08AFE03214BF6020001F067
:1036500085FE03214BF6030001F080FE02214FF4AA
:103660003C4001F07BFE00214BF6014001F076FE6C
:1036700000214BF6024001F071FED0214FF4494089
:1036800001F06CFE02214CF6011001F067FE5021A2
:103690004CF6021001F062FE50214CF6031001F0CE
:1036A0005DFE50214CF6041001F058FE00214FF44D
:1036B000545001F053FE55214FF4685001F04EFE76
:1036C0004FF4885001F03AFE782002F0BBFC4FF432
:1036D000245001F033FE01F05EB9FE48808849F2C3
:1036E000253188427ED147F6F001E52001F036FE13
:1036F0004FF48071012001F031FE4FF4E0610220AF
:1037000001F02CFE41F23001032001F027FE0021E0
:10371000042001F023FE40F20221082001F01EFEE9
:103720000021092001F01AFE00210A2001F016FEF6
:1037300000210C2001F012FE00210D2001F00EFEF0
:1037400000210F2001F00AFE0021102001F006FEEA
:103750000721112001F002FE0021122001F0FEFDE0
:103760000021132001F0FAFD0021072001F0F6FDF1
:1037700041F29061102001F0F1FD40F2272111206B
:1037800001F0ECFD9D21122001F0E8FD4FF4C8513D
:10379000132001F0E3FD2521292001F0DFFD0D219B
:1037A0002B2001F0DBFD0721302001F0D7FD40F296
:1037B0000331312001F0D2FD0321322001F0CEFD92
:1037C00040F20621352001F0C9FD0821362001F024
:1037D000C5FD40F20641372001F0C0FD4FF44171B4
:1037E000382000E057E001F0B9FD0721392001F051
:1037F000B5FD40F202613C2001F0B0FD08213D2002
:1038000001F0ACFD0021502001F0A8FDEF21512076
:1038100001F0A4FD0021522001F0A0FD40F23F1173
:10382000532001F09BFD4FF42741602001F096FDED
:103830000121612001F092FD00216A2001F08EFD3E
:103840000021802001F08AFD0021812001F086FD09
:103850000021822001F082FD0021832001F07EFD05
:103860000021842001F07AFD0021852001F076FD01
:103870001021902001F072FD4FF4C061922001F000
:103880006DFD40F23311072001F068FD2221002078
:1038900001F064FD1FE78F48808849F22831884293
:1038A0007ED141F28F01EC2001F058FD41F234212C
:1038B000EF2001F053FD4FF48071012001F04EFD27
:1038C0004FF4E061022001F049FD41F23001032094
:1038D00001F044FD0021042001F040FD40F20221EE
:1038E000082001F03BFD0021092001F037FD0021F7
:1038F0000A2001F033FD01210C2001F02FFD0021F1
:103900000D2001F02BFD00210F2001F027FD0021EB
:10391000102001F023FD0721112001F01FFD0021DF
:10392000122001F01BFD0021132001F017FD0121E1
:10393000072001F013FD322002F05EFB41F29041BE
:10394000102001F00BFD40F22721112001F006FDAF
:10395000322002F051FB8A21122001F0FFFC3220BC
:1039600002F04AFB4FF4D051132001F0F7FC06217E
:10397000292001F0F3FC0D212B2001F0EFFC322077
:1039800002F03AFB0021202001F0E8FC0021212078
:1039900001F0E4FC322002F02FFB0021302000E097
:1039A00074E001F0DBFC40F20461312001F0D6FC50
:1039B00040F20531322001F0D1FC0021352001F028
:1039C000CDFC40F60941362001F0C8FC4FF40171EE
:1039D000372001F0C3FC40F20131382001F0BEFC79
:1039E00040F20771392001F0B9FC00213C2001F0C0
:1039F000B5FC40F60A213D2001F0B0FC322002F077
:103A0000FBFA0021502001F0A9FCEF21512001F028
:103A1000A5FC0021522001F0A1FC40F23F115320EF
:103A200001F09CFC4FF42741602001F097FC01213C
:103A3000612001F093FC00216A2001F08FFC00213D
:103A4000802001F08BFC0021812001F087FC002107
:103A5000822001F083FC0021832001F07FFC002103
:103A6000842001F07BFC0021852001F077FC1021EF
:103A7000902001F073FC4FF4C061922001F06EFCC5
:103A800040F23311072001F069FC24E611488088D8
:103A900049F2203188427DD10021084601F05EFCC8
:103AA0004FF48071012001F059FC4FF4E0610220D5
:103AB00001F054FC41F23001032001F04FFC0021E1
:103AC000042001F04BFC40F20221082001F046FCEA
:103AD000002101E074020020092001F03FFC0021D8
:103AE0000A2001F03BFC01210C2001F037FC0021F1
:103AF0000D2001F033FC00210F2001F02FFC3220BB
:103B000002F07AFA40F20111072001F027FC32207E
:103B100002F072FA4FF48651102001F01FFC0721C9
:103B2000112001F01BFC4FF48871122001F016FCEB
:103B30004FF43061132001F011FC0021292001F025
:103B40000DFC44F210012B2001F008FC0021502054
:103B500001F004FCEF21512001F000FC0021522073
:103B600001F0FCFB40F23F11532001F0F7FB4FF452
:103B70001C51602001F0F2FB0121612001F0EEFBFD
:103B800000216A2001F0EAFB0021802001F0E6FB21
:103B9000002100E031E0812001F0E0FB00218220E3
:103BA00001F0DCFB0021832001F0D8FB0021842000
:103BB00001F0D4FB0021852001F0D0FB10219020E2
:103BC00001F0CCFB0021922001F0C8FB01219320E1
:103BD00001F0C4FB4FF48871952001F0BFFB002178
:103BE000972001F0BBFB0021982001F0B7FB40F2C9
:103BF0007311072001F0B2FB6DE5FE48808849F2A1
:103C0000313188427DD141F21401E72001F0A6FB59
:103C10004FF48071012001F0A1FB4FF400710220EC
:103C200001F09CFB41F23801032001F097FB40F2C8
:103C30000221082001F092FB0021092001F08EFBF7
:103C400000210A2001F08AFB00210C2001F086FBF4
:103C500000210D2001F082FB00210F2001F07EFBEE
:103C60000021102001F07AFB0721112001F076FBE2
:103C70000021122001F072FB0021132001F06EFBE5
:103C8000C82002F0B9F941F29061102001F066FB02
:103C900040F22721112001F061FB322002F0ACF943
:103CA0000C21122001F05AFB322002F0A5F94FF44A
:103CB0000061132001F052FB1121292001F04EFB7D
:103CC0000B212B2001F04AFB322002F095F9002154
:103CD000202001F043FB40F23F11212001F03EFB88
:103CE0000021302001F03AFB4FF48371312001F0C4
:103CF00035FB0021322001F031FB4FF401713520FA
:103D000000E064E001F02AFB41F20A61362001F094
:103D100025FB40F20771372001F020FB4FF483713F
:103D2000382001F01BFB40F20771392001F016FB2F
:103D300040F202413C2001F011FB40F60F413D20D2
:103D400001F00CFB0021502001F008FBEF21512075
:103D500001F004FB0021522001F000FB40F23F1172
:103D6000532001F0FBFA4FF41C51602001F0F6FAE9
:103D70000121612001F0F2FA00216A2001F0EEFA3F
:103D80000021802001F0EAFA0021812001F0E6FA0A
:103D90000021822001F0E2FA0021832001F0DEFA06
:103DA0000021842001F0DAFA0021852001F0D6FA02
:103DB0001021902001F0D2FA4FF4C061922001F05E
:103DC000CDFA40F23311072001F0C8FA83E48948A4
:103DD000808845F2084188427ED14FF480710120ED
:103DE00001F0BCFA4FF4E061022001F0B7FA41F2B1
:103DF0003001032001F0B2FA0021042001F0AEFAF4
:103E000040F20721082001F0A9FA0021092001F061
:103E1000A5FA00210A2001F0A1FA00210C2001F0EE
:103E20009DFA00210D2001F099FA00210F2001F0E8
:103E300095FA142002F0E0F841F2B061102001F090
:103E40008DFA0121112001F089FA0121172001F0DA
:103E500085FA4FF49C71122001F080FA4FF4006152
:103E6000132001F07BFA0921292001F077FA0921BA
:103E70002A2001F073FA0021A42001F06FFA00213A
:103E8000502001F06BFAEF21512001F067FA002178
:103E9000522001F063FA40F23F11532001F05EFA24
:103EA0004FF41C51602001F059FA0121612001F00A
:103EB00055FA00216A2001F051FA0021802001F01A
:103EC0004DFA0021812001F049FA0021822001F001
:103ED00045FA0021832000E023E001F03FFA0021B1
:103EE000842001F03BFA0021852001F037FA1321EC
:103EF000902001F033FA0021922001F02FFA0321E3
:103F0000932001F02BFA4FF48871952001F026FAE6
:103F100040F27311072001F021FA322002F06CF810
:103F2000B8E43448808841F2055188427ED10021AE
:103F3000072001F013FA322002F05EF84FF48E7180
:103F4000122001F00BFA0121A42001F007FA0F2141
:103F5000082001F003FA08210A2001F0FFF90821E6
:103F60000D2001F0FBF940F20771302001F0F6F965
:103F70000721312001F0F2F940F20361322001F013
:103F8000EDF94FF4E061332001F0E8F940F202214D
:103F9000342001F0E3F90221352001F0DFF941F688
:103FA0000F71362001F0DAF940F20771372001F085
:103FB000D5F90021382001F0D1F90021392001F094
:103FC000CDF940F207713A2001F0C8F900213B20F9
:103FD00001F0C4F907213C2001F0C0F900213D2087
:103FE00001F0BCF9322002F007F80121072001F0AE
:103FF000B5F901E0740200200121172001F0AEF9AB
:10400000322001F0F9FF4FF4BD51102001F0A6F964
:1040100040F21721112001F0A1F94FF48F71122005
:1040200001F09CF94FF47061132000E097E001F07B
:1040300095F900212A2001F091F90A21292001F0A7
:104040008DF94FF49F71122001F088F90021502062
:1040500001F084F9EF21512001F080F90021522074
:1040600001F07CF940F23F11532001F077F94FF451
:104070001C51602001F072F90121612001F06EF9FC
:1040800000216A2001F06AF90021802001F066F920
:104090000021812001F062F90021822001F05EF907
:1040A0000021832001F05AF90021842001F056F903
:1040B0000021852001F052F91321902001F04EF9E2
:1040C0004FF44071922001F049F90521932001F04D
:1040D00045F90021952001F041F90021972001F0D8
:1040E0003DF90021982001F039F94FF48071012049
:1040F00001F034F94FF4E061022001F02FF941F2B0
:104100003801032001F02AF90021042001F026F9EA
:1041100000210C2001F022F900210F2001F01EF9EE
:104120000021202001F01AF90021212001F016F9C8
:104130002121072001F012F9142001F05DFF612117
:10414000072001F00BF9142001F056FF40F2731123
:10415000072001F003F9142001F04EFF95E4FE481A
:1041600080884BF2055188427ED10021084601F03B
:10417000F5F80021084601F0F1F80021084601F0A9
:10418000EDF80021084601F0E9F80121A42001F032
:10419000E5F8142001F030FF4FF41C51602001F0CD
:1041A000DDF840F20221082001F0D8F84FF4057143
:1041B000302001F0D3F843F21571312001F0CEF830
:1041C00040F20461322001F0C9F840F61661332054
:1041D00001F0C4F842F21121342001F0BFF84FF48D
:1041E000A851352001F0BAF848F20751362001F005
:1041F000B5F841F20741372001F0B0F841F2034130
:10420000382001F0ABF82021392001F0A7F81A215D
:10421000902001F0A3F80021102001F09FF8072161
:10422000112001F09BF80021122001F097F80021E5
:10423000132001F093F8142001F0DEFE4FF4E66144
:10424000102001F08BF840F23711112001F086F8B0
:10425000142001F0D1FE4FF4DC71122001F07EF841
:10426000142001F0C9FE00E083E04FF470611320D8
:1042700001F074F880212A2001F070F848212920EB
:1042800001F06CF8142001F0B7FE4FF480710120AA
:1042900001F064F84FF4E061022001F05FF841F2B0
:1042A0003801032001F05AF840F20221082001F001
:1042B00055F800210A2001F051F800210C2001F0EE
:1042C0004DF800210D2001F049F830210E2001F0B9
:1042D00045F80021502001F041F8EF21512001F074
:1042E0003DF80021522001F039F840F23F115320EF
:1042F00001F034F84FF41C51602001F02FF8012137
:10430000612001F02BF800216A2001F027F811212B
:10431000902001F023F84FF4C061922001F01EF8C4
:1043200040F20241932001F019F80221942001F09B
:1043300015F8142001F060FE0121072001F00EF8AD
:10434000142001F059FE6121072001F007F840F226
:104350007311072001F002F80021202000F0FEFF79
:104360000021212000F0FAFF2221002000F0F6FFBA
:1043700011E3794880884CF2055188427ED10021B2
:10438000084600F0EBFF0021084600F0E7FF14208C
:1043900001F032FE0021084600F0E0FF002108464F
:1043A00000F0DCFF0021084600F0D8FF002108469D
:1043B00000F0D4FF0121A42000F0D0FF142001F070
:1043C0001BFE4FF41C51602000F0C8FF40F60601B0
:1043D000082000F0C3FF40F20371302000F0BEFF60
:1043E0000121312000F0BAFF0421322000F0B6FF95
:1043F0004FF48171332000F0B1FF4FF4407134204D
:1044000000F0ACFF40F20311352000F0A7FF1F21A0
:10441000362000F0A3FF40F20371372000F09EFF2A
:104420000121382000F09AFF0421392000F096FF86
:104430001521902000F092FF4FF48261102000F0CF
:104440008DFF40F24721112000F088FF4FF4DE710C
:10445000122000F083FF4FF46061132000F07EFF14
:10446000782001F0C9FD4FF48071012000F076FF43
:104470004FF40071022000F071FF00E050E041F2C3
:104480003001032000F06AFF08210A2000F066FFD7
:1044900000210C2000F062FF20210E2000F05EFFC2
:1044A00000210F2000F05AFF0021202000F056FFCD
:1044B0000021212000F052FF3D212A2000F04EFF74
:1044C000142001F099FD2D21292000F047FF002143
:1044D000502000F043FF4DF2EF01512000F03EFF6D
:1044E0000021522000F03AFF40F23F11532000F02B
:1044F00035FF0021612000F031FF00216A2000F02B
:104500002DFF4FF44071922000F028FF05219320E9
:1045100000F024FF4FF48071072000F01FFF3AE203
:104520000D48808844F2315188427CD1012100201D
:1045300000F014FF0A2001F05FFD41F22861102015
:1045400000F00CFF0E21122000F008FF40F6392188
:10455000132000F003FF01E0740200200A2001F0A4
:104560004BFD4021112000F0F9FE5021152000F0F4
:10457000F5FE0A2001F040FD1E21122000F0EEFEA3
:104580000A2001F039FD4FF4B151102000F0E6FE91
:1045900042F63921132000F0E1FE0A2001F02CFD43
:1045A0004FF48071012000F0D9FE4FF440710220D9
:1045B00000F0D4FE41F23801032000F0CFFE40F2BB
:1045C0000221082000F0CAFE08210A2000F0C6FEE1
:1045D0000021302000F0C2FE40F20241312000F004
:1045E000BDFE4FF48371322000F0B8FE40F203515B
:1045F000332000F0B3FE4FF48271342000F0AEFEA1
:1046000040F20131352000F0A9FE40F2077136205A
:1046100000F0A4FE40F20531372000F09FFE4FF479
:104620000271382000E040E000F098FE40F60B7187
:10463000392000F093FE0221412000F08FFE4FF45C
:104640001C51602000F08AFE0121612000F086FEEE
:104650004FF40471902000F081FE4FF48571922098
:1046600000F07CFE0421932000F078FE4FF480716E
:10467000A02000F073FE0121072000F06FFE212131
:10468000072000F06BFE2321072000F067FE332196
:10469000072000F063FE40F23311072000F05EFEB9
:1046A0000021A02000F05AFE75E1C148808844F244
:1046B000355188427ED13021152000F04FFE102167
:1046C0009A2000F04BFE2021112000F047FE43F21B
:1046D0002841102000F042FE0221122000F03EFE90
:1046E00041F23801132000F039FE282001F084FC4B
:1046F0001221084600F032FE282001F07DFC43F232
:104700002041102000F02AFE43F23801132000F06F
:1047100025FE462001F070FC0021302000F01EFE36
:1047200040F20241312000F019FE40F20731322000
:1047300000F014FE4FF44171332000F00FFE04210D
:10474000342000F00BFE40F20141352000F006FE5F
:1047500040F20771362000F001FE40F205313720AB
:1047600000F0FCFD4FF4C261382000F0F7FD4FF47B
:10477000C261392000F0F2FD4FF48071012000F099
:10478000EDFD4FF44071022000F0E8FD41F23001F0
:10479000032000F0E3FD40F60801082000F0DEFDF4
:1047A00008210A2000F0DAFD4FF41C51602000F0CF
:1047B000D5FD00E031E00121612000F0CFFD4FF494
:1047C0009F71902000F0CAFD4FF48071922000F09C
:1047D000C5FD4FF48071932000F0C0FD4FF44051AF
:1047E000A02000F0BBFD1021A32000F0B7FD0121A7
:1047F000072000F0B3FD2121072000F0AFFD2321A9
:10480000072000F0ABFD3321072000F0A7FD40F2A8
:104810003311072000F0A2FDBDE06548808841F615
:1048200063118842F8D1E22000F088FD1D2000F0DD
:104830007FFD022000F07CFD042000F079FD642063
:1048400001F000FCE02000F079FD012000F070FD97
:104850000A2001F0D1FBE02000F070FD032000F001
:1048600067FD0C2001F0C8FB012000F067FD0A2065
:1048700001F0C2FBE62000F061FD2F2000F058FDA2
:10488000FF2000F055FDFF2000F052FDB02000F0A9
:1048900055FD202000F04CFD002000F049FD0320D4
:1048A00000F046FD40F21F3000F042FD012000F014
:1048B0003FFD40F2DF1000F03BFD002000F038FD2E
:1048C000B42000F03BFD042000F032FD40F21F4018
:1048D00000F02EFD002000F02BFD2E2000F028FD22
:1048E000002000F025FD002000F022FD002000F057
:1048F0001FFD002000F01CFDB62000F01FFD02206F
:1049000000F016FD4FF4037000F012FD002000F0DF
:104910000FFD172000F00CFD152000F009FD002010
:1049200000F006FD002000F003FDF02000F006FD81
:10493000032000F0FDFC292000F000FDD02000F055
:10494000FDFC002000F0F4FCBE2000F0F7FC052088
:1049500000F0EEFCFE2000F0EBFC012000F0E8FC93
:10496000002000F0E5FC002000F0E2FC002000F058
:10497000DFFCB82000F0E2FC032000F0D9FC0120AD
:1049800000F0D6FCBA2000F0D9FC012000F0D0FCE9
:10499000642000F0E9F80020FCF784F901200549C3
:1049A00008604FF6FF70FCF747F91FB000BD00002C
:1049B000740200208081214210B50246012000E0EF
:1049C00050430B00A1F10104E1B2F9D110BD000088
:1049D00008B5034800880090BDF8000008BD00003D
:1049E0000008006C2DE9F04105460E460024002722
:1049F000A04656480088A84203DD54484088B0428B
:104A000002DC0020BDE8F0813146284600F04CFA77
:104A10004E48808849F24131884211D04B48808805
:104A200046F6040188420BD04848808845F2103190
:104A3000884205D04548808841F66311884203D1F9
:104A40002E2000F07BFC0DE04048808845F210519C
:104A5000884204D14FF4385000F070FC02E022206C
:104A600000F06CFC3948808849F22031884202D13C
:104A7000022001F0A5FBFFF7ABFF04463348808816
:104A800041F66311884201D12046BBE7022001F0C4
:104A900097FBFFF79DFF04462C48808849F241317F
:104AA00088420BD02948808845F21031884205D0D1
:104AB0002648808845F2105188420AD1022001F030
:104AC0007FFBFFF785FF8046E7B24FF6FF7000EAF5
:104AD00007271E48808849F22531884216D01B4896
:104AE000808844F23551884210D018488088091FC8
:104AF00088420BD0154880884BF20551884205D07A
:104B0000124880884CF20551884201D1204679E74D
:104B10000E48808849F2413188420BD00B4880888A
:104B200045F21031884205D00848808845F210517E
:104B3000884207D1E012C002B91240EA411040EAAF
:104B4000E8205FE72046FCF76AF85BE77402002084
:104B500010B50446204600F0F1FB052001F072FA82
:104B6000FFF736FF10BD00002DE9F0470446BE20D8
:104B700000F0E4FB052000F0DBFB204602F023FC04
:104B800007464FF066320C4B02F030FC054602F04F
:104B9000EDFB1FFA80F9484600F0CAFB012000F047
:104BA000C7FBFF2000F0C4FB002000F0C1FB002089
:104BB00000F0BEFBBDE8F0876666044070B50446B1
:104BC00000230026B748807901280BD1B54880889A
:104BD00046F60401884205D0B248808841F6631148
:104BE000884208D1AF488079F0B9AE48808841F654
:104BF0006311884218D1082C15D2DFE804F00406AE
:104C0000080A0C0E101206240DE007240BE0042401
:104C100009E0052407E0012405E0002403E0032463
:104C200001E0022400BF00BF9E48808849F2413164
:104C3000884217D09B48808846F60401884211D0EC
:104C40009848808845F2103188420BD0954880887A
:104C500045F21051884205D09248808841F6631190
:104C600088427DD1082C1CD2DFE804F00406090C30
:104C70000F12151800BF14E043F0800311E043F059
:104C800040030EE043F0C0030BE043F0200308E0D4
:104C900043F0600305E043F0A00302E043F0E003CB
:104CA00000BF00BF7F48808845F21051884202D182
:104CB0004FF4585600E036267A48808845F2103185
:104CC00088420DD07748808845F21051884207D03D
:104CD0007448808841F66311884201D043F008038C
:104CE0007048808846F60401884201D143F00203EF
:104CF0001946304600F032FB6A48808841F663115D
:104D000088421DD003F0200068B1664800886549DC
:104D10004988884214DA63480588408861490880D8
:104D2000084645800CE05F4800885E494988884213
:104D300006DD5C48058840885A4908800846458059
:104D40005848808845F21051884254D155494889C5
:104D500000F0F4FA002000F0EBFA5249498900E033
:104D600078E0491C88B200F0E9FA002000F0E0FA8F
:104D70004C494989891C88B200F0E0FA4949098800
:104D8000491EC1F30F2000F0D3FA46494989C91CD6
:104D900088B200F0D3FA43490978491EC8B200F03E
:104DA000C7FA4049888900F0C9FA002000F0C0FA2B
:104DB0003C498989491C88B200F0C0FA002000F003
:104DC000B7FA38498989891C88B200F0B7FA3549A1
:104DD0004988491EC1F30F2000F0AAFA3149898998
:104DE000C91C88B200F0AAFA2E498978491EC8B2B7
:104DF00000F09EFA55E02B49488900F09FFA002008
:104E000000F096FA002000F093FA26490988491E1E
:104E1000C1F30F2000F08CFA22490978491EC8B26C
:104E200000F086FA1F49888900F088FA002000F017
:104E30007FFA002000F07CFA1A494988491EC1F324
:104E40000F2000F075FA17498978491EC8B200F0A2
:104E50006FFA26E0082C1CD2DFE804F004070A0DE4
:104E60000F12151843F0300313E043F0100310E065
:104E700043F020030DE000BF0BE043F0380308E0EF
:104E800043F0280305E043F0180302E043F0080371
:104E900000BF00BF032643F480531946304600F09C
:104EA0005DFA70BD7402002010B503460C466748D9
:104EB000808849F24131884205D06448808845F2B3
:104EC0001031884214D16149488900F037FA18122C
:104ED00000F02EFAD8B200F02BFA5C49888900F075
:104EE0002DFA201200F024FAE0B200F021FAABE033
:104EF0005648808846F6040188421DD1534880797F
:104F0000012804D151480088401EC01A83B24F497D
:104F1000488900F013FA181200F00AFAD8B200F02B
:104F200007FA4A49888900F009FA201200F000FACD
:104F3000E0B200F0FDF987E04448808841F6631153
:104F4000884247D141488079A8B940480088401E2E
:104F5000C01A83B23D49488900F0F0F9002000F002
:104F6000E7F9002000F0E4F9181200F0E1F9D8B2F6
:104F700000F0DEF916E03549488900F0DFF9181233
:104F800000F0D6F9D8B200F0D3F930490988491EAB
:104F9000C1F30F2000F0CCF92C490978491EC8B2A2
:104FA00000F0C6F92949888900F0C8F9201200F0FC
:104FB000BFF9E0B200F0BCF924494988491EC1F3A9
:104FC0000F2000F0B5F921498978491EC8B200F0D8
:104FD000AFF939E01D48808845F21051884220D150
:104FE0001A49488900F0AAF9181200F0A1F91749E6
:104FF0004989491C88B200F0A1F9D8B200F098F9AB
:105000001249888900F09AF9201200F091F90F49AD
:105010008989491C88B200F091F9E0B200F088F962
:1050200012E00A488079012804D108480088401E0F
:10503000C01A83B205494889194600F08FF903491F
:105040008889214600F08AF910BD00007402002012
:105050002DE9F84F80460E4617461C46B3462046BB
:10506000E31704EB5373DB1021464FEAE47C04EBB7
:105070005C7C4FEAEC0CA4EBCC0CBCF1000F02D032
:105080004FF0010C01E04FF0000C6344224604EBAA
:10509000D27C4FEA6C0C03FB0CF3DBB20093A7F15C
:1050A0002000C7B2002556E00C2C07D107EB4700C3
:1050B0002B4901EB800010F8059013E0102C05D16E
:1050C000284800EB071010F805900BE0182C07D1CA
:1050D00007EBC700244901EB800010F8059001E0C0
:1050E000BDE8F88F4FF0000A2FE009F0800030B1E2
:1050F0001E48028831464046FBF788FF07E00A98C1
:1051000028B91B48028831464046FBF77FFF4FEA2B
:1051100049604FEA1069701C86B216484088B04258
:1051200000DCDDE7A6EB0B00A0420AD15E4608F1E9
:1051300001001FFA80F80F480088404500DCCFE7E7
:1051400006E00AF1010000F0FF0ABAF1080FCCDB1B
:1051500000BF681CC5B200988542A5DB00BFBFE751
:10516000E87500085C7A00084C80000836000020D2
:1051700038000020740200202DE9FF4F81B007465F
:1051800091461E460E9D4FF0000A002439E0301B68
:10519000401EC1B20A20FFF70FFCB9FBF0F00A2154
:1051A000B0FBF1F201FB1208BAF1000F16D1701E2C
:1051B000A04213DDB8F1000F0ED10020AB4605EB85
:1051C000DB71491001FB0471009088B22B4620224C
:1051D0000299FFF73DFF12E04FF0010A0020AB46B5
:1051E00005EBDB71491001FB0471009088B208F1F6
:1051F0003001CAB22B460299FFF72AFF00BF601C9C
:10520000C4B2B442C3DB05B0BDE8F08F2DE9F84766
:1052100004460D4690469946DDE9096704F0FF0A09
:1052200008EB04001FFA80F809EB05001FFA80F96B
:1052300016E0444502DB5446A81985B24D4500DB13
:1052400014E0002000903A78334629462046FFF7C4
:10525000FFFE304606EBD07104EB61018CB27F1C7F
:1052600038787E2802DC38782028E2DA00BFBDE8F2
:10527000F8872DE9FF4F82B0064692461F46DDE9CA
:105280000F480020019000254DE0781B401EC1B260
:105290000A20FFF791FBBAFBF0F00A21B0FBF1F214
:1052A00001FB1209019850BB781EA84227DDB9F115
:1052B000000F22D108F0800078B108F00100A34669
:1052C00004EBDB71491001FB0561009088B22346B5
:1052D00030220399FFF7BCFE0EE008F00100A34660
:1052E00004EBDB71491001FB0561009088B2234695
:1052F00020220399FFF7ACFE13E00120019008F093
:105300000100A34604EBDB71491001FB056100902D
:1053100088B209F13001CAB223460399FFF798FE1B
:1053200000BF681CC5B2BD42AFDB06B0BDE8F08F60
:1053300001490880704700000008006C014908809E
:1053400070470000FE07006C02480089024908808F
:105350007047000074020020FE07006C024A1080B3
:10536000921C118070470000FE07006C08B50121F7
:10537000482000F017F910208DF803002020ADF828
:10538000000003208DF8020069460948FBF781FB05
:1053900020210748FBF708FC2020ADF800006946F3
:1053A0000448FBF776FB20210248FBF7FDFB08BD14
:1053B000000C01400018014070B50024002508E0F1
:1053C0000620FBF7F3FB0444052000F015FE681CE3
:1053D000C5B20A2DF4DB0A20B4FBF0F4B4F57A6F01
:1053E00001D94FF47A642820B4FBF0F0C0F16400D6
:1053F000C0B270BD00B587B00121802000F0D2F8A6
:105400000121C80300F0CEF84FF48070ADF8180009
:1054100000208DF81B0006A91C48FBF73AFB012170
:10542000C80300F0CFF800214FF4004000F0CAF8A4
:105430001748FBF783F9002001908DF808008DF8DC
:1054400009004FF4602003900020049001208DF8A3
:10545000140001A90E48FBF7C1F901210C48FBF724
:1054600061F90B48FBF73EFA00BF0948FBF7ABF9BF
:105470000028FAD10648FBF745FA00BF0448FBF7BD
:105480008BF90028FAD107B000BD0000001C0140D4
:10549000003C014000BFFEE77047000070B50021EE
:1054A00000230F22C47804B3154C246804F4E0648C
:1054B000C4F5E064210AC1F10403CA40447804FA47
:1054C00003F184781440214309010E4C0678A1555C
:1054D000047804F01F050124AC4005786D11AD007F
:1054E00005F1E025C5F8004109E0047804F01F0546
:1054F0000124AC40044D0678761145F8264070BD75
:105500000CED00E000E400E080E100E0024901432E
:10551000024A1160704700000000FA050CED00E03F
:105520000A48006840F0040008490860084600681E
:1055300040F0020008600648006840F0040004499A
:10554000086000BF00BF30BF70470000007000401F
:1055500010ED00E00149086070470000A0000E4215
:105560007047000029B1064A52690243044B5A6150
:1055700004E0034A52698243014B5A6170470000BC
:105580000010024029B1064AD2690243044BDA6195
:1055900004E0034AD2698243014BDA61704700009C
:1055A0000010024029B1064A92690243044B9A61F5
:1055B00004E0034A92698243014B9A6170470000FC
:1055C0000010024029B1064AD2680243044BDA6057
:1055D00004E0034AD2688243014BDA60704700005E
:1055E0000010024030B500210022002400232D4D80
:1055F0006D6805F00C0121B1042905D0082923D1DB
:1056000005E0294D056022E0274D05601FE0254D8E
:105610006D6805F47012234D6D6805F48034022521
:1056200005EB92421CB9214D554305600BE01D4D21
:105630006D6805F400351DB11C4D5543056002E051
:10564000194D5543056002E0174D056000BF00BFCE
:10565000144D6D6805F0F0010909154D6B5C056886
:10566000DD4045600F4D6D6805F4E061090A104D9D
:105670006B5C4568DD4085600A4D6D6805F46051DE
:10568000C90A0B4D6B5C4568DD40C560054D6D6812
:1056900005F44041890B074D6B5CC568B5FBF3F51C
:1056A000056130BD0010024000127A0000093D0083
:1056B0001E0000202E000020024909888143014A73
:1056C000118070470428004070B500260024002592
:1056D00000F07AF806463848B6FBF0F43748008800
:1056E000A0423CD035490C8040F2B27510E028460B
:1056F000FBF778FA40B1B4F5B77F02D3A4F5B774DD
:1057000004E0681C85B206E0A4F26D14681C85B242
:10571000B4F5B67FEBD800BF29488580002516E098
:1057200027498888FBF75EFA30B1012D04D11D2C82
:1057300001D31D3C09E00CE02248405DA04203D8A3
:105740002048405D241A00E003E0681C85B21C2C50
:10575000E6D200BF681C1A498871601CC8711648DF
:10576000B6FBF0F100FB11644FF46160B4FBF0F0A4
:10577000134908704FF46160B4FBF0F100FB114075
:105780003C21B0FBF1F00E4948704FF46160B4FB6E
:10579000F0F100FB11403C21B0FBF1F201FB1200E3
:1057A000074988700B46DA799979988800F028F8CB
:1057B00003490872002070BD805101003A000020AA
:1057C00082020020B48D0008002103480188001FD8
:1057D000008841EA004070471C2800400146002034
:1057E000064A12880A40D0B2044A121F12880A40A0
:1057F00012B108B1012000E00020704704280040E9
:10580000F0B503460C461546642093FBF0F0C6B293
:10581000642093FBF0F700FB1730C1B2132E02DDBA
:1058200001F16400C1B20846CF1701EB977701EB95
:10583000A707BAB2072092FBF0F700FB172082B24D
:105840005719601EDFF82CC01CF80000384482B2E3
:10585000CF1701EB9777BF10A1EB87071FB9032C78
:1058600001DA501E82B2072092FBF0F700FB1720EE
:10587000C0B2F0BDA88D00080EB50120FFF7AEFF45
:1058800008B1FFF721FF0220FFF7A8FFA0B1022017
:10589000FFF712FFFFF718FF0A4880780949497897
:1058A000084A1278CDE9002102900648C37982792E
:1058B000818805A0FAF7DCFC0520FFF7FDFE00F06B
:1058C00013F80EBD82020020416C61726D20546994
:1058D0006D653A25642D25642D25642025643A25BF
:1058E000643A25640A00000000BF0348008800F005
:1058F00020000028F9D0704704280040704710B5F8
:1059000000F002F810BD00000CB5002001900090DE
:105910003348006840F480303149086000BF3048A7
:10592000006800F4003000900198401C019000983D
:1059300018B90198B0F5A06FF1D12948006800F4BA
:10594000003010B10120009001E00020009000988C
:10595000012843D12348006840F010002149086025
:105960000846006820F0030008600846006840F020
:10597000020008601A4840681949486008464068B3
:1059800048600846406840F48060486008464068C7
:1059900020F47C1048600846406840F4E8104860F5
:1059A0000846006840F08070086000BF0C4800683E
:1059B00000F000700028F9D00948406820F003008A
:1059C000074948600846406840F00200486000BF50
:1059D0000348406800F00C000828F9D10CBD000015
:1059E0000010024000200240042808D14FF0E021BE
:1059F000096941F004014FF0E022116107E04FF026
:105A0000E021096921F004014FF0E02211617047A3
:105A1000704710B500214FF4FE70FFF7D3FD00F082
:105A200001F810BD10B501210807FFF7ABFD0120FB
:105A3000FFF790FDFFF774FD10BD000010B513488F
:105A4000006840F0010011490860084640681049AC
:105A500008400E494860084600680E4908400B4956
:105A600008600846006820F4802008600846406806
:105A700020F4FE0048604FF41F008860FFF73FFFEE
:105A80004FF000600449086010BD000000100240A3
:105A90000000FFF8FFFFF6FE08ED00E010B5012161
:105AA000084800F0A5F858B10121064800F088F830
:105AB0000548006808B9012000E00020024908609C
:105AC00010BD0000000400409481214210B5012166
:105AD0000A4800F096F801280AD109490869804768
